{
  "contractName": "MarketPlace",
  "abi": [
    {
      "inputs": [],
      "payable": false,
      "stateMutability": "nonpayable",
      "type": "constructor"
    },
    {
      "anonymous": false,
      "inputs": [
        {
          "indexed": false,
          "name": "_name",
          "type": "string"
        },
        {
          "indexed": false,
          "name": "_Hash",
          "type": "bytes32"
        },
        {
          "indexed": false,
          "name": "_SwarmHash",
          "type": "bytes32"
        },
        {
          "indexed": false,
          "name": "_Price",
          "type": "uint256"
        },
        {
          "indexed": false,
          "name": "_Description",
          "type": "string"
        },
        {
          "indexed": false,
          "name": "_FileID",
          "type": "uint256"
        },
        {
          "indexed": false,
          "name": "_SellerID",
          "type": "uint256"
        },
        {
          "indexed": false,
          "name": "_owner",
          "type": "address"
        }
      ],
      "name": "NewFile",
      "type": "event"
    },
    {
      "anonymous": false,
      "inputs": [
        {
          "indexed": false,
          "name": "_FileID",
          "type": "uint256"
        },
        {
          "indexed": false,
          "name": "_orderID",
          "type": "uint256"
        },
        {
          "indexed": false,
          "name": "_price",
          "type": "uint256"
        }
      ],
      "name": "EventCreateOrder",
      "type": "event"
    },
    {
      "constant": false,
      "inputs": [
        {
          "name": "_name",
          "type": "string"
        },
        {
          "name": "_Hash",
          "type": "bytes32"
        },
        {
          "name": "_SwarmHash",
          "type": "bytes32"
        },
        {
          "name": "_Price",
          "type": "uint256"
        },
        {
          "name": "_Description",
          "type": "string"
        }
      ],
      "name": "addFile",
      "outputs": [],
      "payable": false,
      "stateMutability": "nonpayable",
      "type": "function"
    },
    {
      "constant": false,
      "inputs": [
        {
          "name": "_FileID",
          "type": "uint256"
        }
      ],
      "name": "createOrder",
      "outputs": [],
      "payable": true,
      "stateMutability": "payable",
      "type": "function"
    },
    {
      "constant": false,
      "inputs": [
        {
          "name": "_orderID",
          "type": "uint256"
        },
        {
          "name": "_approve",
          "type": "bool"
        }
      ],
      "name": "approveOrder",
      "outputs": [],
      "payable": false,
      "stateMutability": "nonpayable",
      "type": "function"
    },
    {
      "constant": true,
      "inputs": [
        {
          "name": "_fileID",
          "type": "uint256"
        }
      ],
      "name": "searchOrder",
      "outputs": [
        {
          "name": "",
          "type": "uint256"
        }
      ],
      "payable": false,
      "stateMutability": "view",
      "type": "function"
    }
  ],
  "bytecode": "0x608060405234801561001057600080fd5b50611090806100206000396000f3006080604052600436106100615763ffffffff7c0100000000000000000000000000000000000000000000000000000000600035041663c0b621368114610066578063c57666be14610085578063f8ad8cd7146100af578063ff29eb9b146100ba575b600080fd5b34801561007257600080fd5b506100836004356024351515610163565b005b34801561009157600080fd5b5061009d600435610479565b60408051918252519081900360200190f35b61008360043561055e565b3480156100c657600080fd5b506040805160206004803580820135601f810184900484028501840190955284845261008394369492936024939284019190819084018382808284375050604080516020601f60608a01358b0180359182018390048302840183018552818452989b8a359b838c01359b958601359a919950975060809094019550919350918201918190840183828082843750949750610a1c9650505050505050565b600061016d610f51565b60025460009085111561017f57600080fd5b600280548690811061018d57fe5b6000918252602090912060049091020160010154600160a060020a03163314806101fe575060006002868154811015156101c357fe5b6000918252602090912060049091020154815481106101de57fe5b6000918252602090912060089091020160070154600160a060020a031633145b151561020957600080fd5b600280548690811061021757fe5b6000918252602082206004909102018054825491955090811061023657fe5b60009182526020918290206040805160089390930290910180546002610100600183161581026000190190921604601f810186900490950284016101209081019093528301848152929390928492909184918401828280156102d95780601f106102ae576101008083540402835291602001916102d9565b820191906000526020600020905b8154815290600101906020018083116102bc57829003601f168201915b50505091835250506001828101546020808401919091526002808501546040808601919091526003860154606086015260048601805482516000199682161561010002969096011692909204601f810184900484028501840190915280845260809094019390918301828280156103915780601f1061036657610100808354040283529160200191610391565b820191906000526020600020905b81548152906001019060200180831161037457829003601f168201915b50505091835250506005820154602082015260068201546040820152600790910154600160a060020a0390811660609092019190915260e0820151600186015492945092501633141561041c5760018301805475ff00000000000000000000000000000000000000000019167501000000000000000000000000000000000000000000861515021790555b33600160a060020a03821614156104695760018301805474ff0000000000000000000000000000000000000000191674010000000000000000000000000000000000000000861515021790555b61047285610ddd565b5050505050565b6000610483610f94565b60005b60025481101561055757600280548290811061049e57fe5b60009182526020918290206040805160c0810182526004909302909101805483526001810154600160a060020a03811694840185905260ff740100000000000000000000000000000000000000008204811615159385019390935275010000000000000000000000000000000000000000009004821615156060840152600281015460808401526003015416151560a08201529250331461053e5761054f565b815184141561054f57809250610557565b600101610486565b5050919050565b610566610f51565b6000808381548110151561057657fe5b60009182526020918290206040805160089390930290910180546002610100600183161581026000190190921604601f810186900490950284016101209081019093528301848152929390928492909184918401828280156106195780601f106105ee57610100808354040283529160200191610619565b820191906000526020600020905b8154815290600101906020018083116105fc57829003601f168201915b50505091835250506001828101546020808401919091526002808501546040808601919091526003860154606086015260048601805482516000199682161561010002969096011692909204601f810184900484028501840190915280845260809094019390918301828280156106d15780601f106106a6576101008083540402835291602001916106d1565b820191906000526020600020905b8154815290600101906020018083116106b457829003601f168201915b50505091835250506005820154602082015260068201546040820152600790910154600160a060020a031660609091015260005490925083111561079c57604080517f08c379a000000000000000000000000000000000000000000000000000000000815260206004820152603b60248201527fd0a4d0b0d0b9d0bb20d18120d183d0bad0b0d0b7d0b0d0bdd0bdd18bd0bc204960448201527f4420d0bdd0b520d181d183d189d0b5d181d182d0b2d183d0b5d1820000000000606482015290519081900360840190fd5b606082015134101561083557604080517f08c379a000000000000000000000000000000000000000000000000000000000815260206004820152602c60248201527f676976656e206d6f6e65792073686f756c64206265206772656174657220746860448201527f616e207468652070726963650000000000000000000000000000000000000000606482015290519081900360840190fd5b506040805160c0810182528381523360208083019182526000838501818152606080860183815288820180516080890190815260a0890186815260028054600181018083559189529a5160049b8c027f405787fa12a823e0f2b7631cc41b3ba8828b3321ca811111fa75cd3aa3bb5ace81019190915599517f405787fa12a823e0f2b7631cc41b3ba8828b3321ca811111fa75cd3aa3bb5acf8b01805498519651151575010000000000000000000000000000000000000000000275ff00000000000000000000000000000000000000000019971515740100000000000000000000000000000000000000000274ff000000000000000000000000000000000000000019600160a060020a039490941673ffffffffffffffffffffffffffffffffffffffff19909b169a909a1792909216989098179590951694909417909555517f405787fa12a823e0f2b7631cc41b3ba8828b3321ca811111fa75cd3aa3bb5ad088015592517f405787fa12a823e0f2b7631cc41b3ba8828b3321ca811111fa75cd3aa3bb5ad1909601805496151560ff1990971696909617909555918490529382529251845187815291820183905281850152925190927f8dfeb0267d301a3c68b6b58986366f04dfb03f5802faef1a6419f1cbc1109bba92908290030190a1505050565b336000908152600160205260408120549060608180841515610a8f5760058054600181018083556000929092527f036b6384b5eca791c62761152d0c79bb0604c104a5fb6f4eb0703f3154bb3db001805473ffffffffffffffffffffffffffffffffffffffff1916331790559350610b2a565b3360009081526001602090815260409182902080548351818402810184019094528084529091830182828015610ae457602002820191906000526020600020905b815481526020019060010190808311610ad0575b50505050509250826000815181101515610afa57fe5b906020019060200201519150600082815481101515610b1557fe5b90600052602060002090600802016006015493505b506000805460408051610100810182528c815260208082018d90529181018b9052606081018a90526080810189905260a0810183905260c081018790523360e082015260018301808555938052805180519394939192600886027f290decd9548b62a8d60345a988386fc84ba6bc95484008f6362f93160ef3e5630192610bb49284920190610fc9565b506020828101516001830155604083015160028301556060830151600383015560808301518051610beb9260048501920190610fc9565b5060a0820151816005015560c0820151816006015560e08201518160070160006101000a815481600160a060020a030219169083600160a060020a031602179055505050506001600033600160a060020a0316600160a060020a031681526020019081526020016000208190806001815401808255809150509060018203906000526020600020016000909192909190915055507fa7d75d4f1f397d376eb2e26a8e05f28bb16bf9d62d56ecd14b2b44159032e4358a8a8a8a8a868a336040518080602001896000191660001916815260200188600019166000191681526020018781526020018060200186815260200185815260200184600160a060020a0316600160a060020a0316815260200183810383528b818151815260200191508051906020019080838360005b83811015610d2f578181015183820152602001610d17565b50505050905090810190601f168015610d5c5780820380516001836020036101000a031916815260200191505b50838103825287518152875160209182019189019080838360005b83811015610d8f578181015183820152602001610d77565b50505050905090810190601f168015610dbc5780820380516001836020036101000a031916815260200191505b509a505050505050505050505060405180910390a150505050505050505050565b6000806000600284815481101515610df157fe5b60009182526020909120600490910201600381015490935060ff1615610e7857604080517f08c379a000000000000000000000000000000000000000000000000000000000815260206004820181905260248201527f746865206f7264657220686173206265656e20616c7265616479207061796564604482015290519081900360640190fd5b6002830154835460008054929450918110610e8f57fe5b6000918252602090912060089091020160070154600184810154600160a060020a0390921692507401000000000000000000000000000000000000000090910460ff16151514610ede57600080fd5b6001838101547501000000000000000000000000000000000000000000900460ff16151514610f0c57600080fd5b60038301805460ff19166001179055604051600160a060020a0382169083156108fc029084906000818181858888f19350505050158015610472573d6000803e3d6000fd5b60408051610100810182526060808252600060208301819052928201839052808201839052608082015260a0810182905260c0810182905260e081019190915290565b6040805160c081018252600080825260208201819052918101829052606081018290526080810182905260a081019190915290565b828054600181600116156101000203166002900490600052602060002090601f016020900481019282601f1061100a57805160ff1916838001178555611037565b82800160010185558215611037579182015b8281111561103757825182559160200191906001019061101c565b50611043929150611047565b5090565b61106191905b80821115611043576000815560010161104d565b905600a165627a7a72305820a0a9f8132f0804f0847d4b18c3978547f1adc018b2b02a8502fb38f41f8af2590029",
  "source": "pragma solidity ^0.4.0;\n//pragma experimental ABIEncoderV2;\n\ncontract MarketPlace {\n    constructor() public {}\n\n    struct sFile {\n        string Name;\n        bytes32 Hash;\n        bytes32 SwarmHash;\n        uint Price;\n        string Description;\n        uint FileID;\n        uint SellerID;\n        address Owner;\n        //todo категории\n    }\n\n    struct oneOrder { // планируется для отслеживания подтверждения, что все получили чего хотели.\n        //uint OrderID;\n        uint FileID;\n        address BayerAddress;\n        bool OwnerApprove; // согласие завершение сделки со стороны владельца ресурса\n        bool BayerApprove; // согласие завершение сделки со стороны покупателя\n        uint FixPrise; // стоимость для фиксирования цены\n        bool isPayed;\n\n        // берем из dbFiles[oneOrder.FileID]\n        //        string Name;\n        //        bytes32 Hash;\n        //        bytes32 SwarmHash;\n        //        uint Price;\n        //        string Description;\n        //\n    }\n\n    event NewFile(string _name, bytes32 _Hash, bytes32 _SwarmHash, uint _Price,\n            string _Description, uint _FileID, uint _SellerID, address _owner);\n\n    //  mapping(address => sFile[]) dbFile;\n    sFile[] dbFiles;\n    mapping(address => uint[]) sellerFileIDs;\n   // mapping(address => uint) deposit;\n\n    oneOrder[] allOrders;\n    mapping(uint => address) ownerOrdersID; //fixme записть заказов хромает надо сделать приятней, и ниже тоже\n    mapping(uint => address) bayersOrdersID; //fixme да и тут\n\n    address[] allVendorsAtTheCurrentMoment; // для проверки: есть ли такой продавец\n\n    function addFile(string _name, bytes32 _Hash, bytes32 _SwarmHash, uint _Price, string _Description) public {\n        uint _fileCount = sellerFileIDs[msg.sender].length;\n        uint _SellerID;\n        if (_fileCount == 0) {\n            _SellerID = allVendorsAtTheCurrentMoment.push(msg.sender);\n        } else {\n            uint[] memory sellerFilesIDs = sellerFileIDs[msg.sender];\n            uint sellerFirstFileID = sellerFilesIDs[0];\n            _SellerID = dbFiles[sellerFirstFileID].SellerID;\n        }\n\n        uint _FileID = dbFiles.length;\n        dbFiles.push(sFile(_name, _Hash, _SwarmHash, _Price, _Description, _FileID, _SellerID, msg.sender));\n        sellerFileIDs[msg.sender].push(_FileID);\n\n        emit NewFile(_name, _Hash, _SwarmHash, _Price, _Description, _FileID, _SellerID, msg.sender);\n    }\n\n//    function list() public view returns(sFile[]) {\n//        sFile[] memory _allfiles;\n//        for (uint i = 0; i < dbFiles.length; i++) {\n//            _allfiles.push(dbFiles[i]);\n//        }\n//        return _allfiles;\n//\n//    }\n\n    mapping(address => uint) deposits;\n\n    event EventCreateOrder(uint _FileID, uint _orderID, uint _price);\n\n    function createOrder(uint _FileID) public payable {\n        // todo проверка суммы стоимости модели\n        sFile memory BayFile = dbFiles[_FileID];\n        require(dbFiles.length >= _FileID, \"Файл с указанным ID не существует\");\n        require(BayFile.Price <= msg.value, \"given money should be greater than the price\");\n//      deposits[msg.sender] += msg.value;\n        uint _orderID = allOrders.push(oneOrder(_FileID, msg.sender, false, false, BayFile.Price, false));\n        ownerOrdersID[_orderID];\n        // fixme исправить !!!!!\n        bayersOrdersID[_orderID];\n        // fixme исправить !!!!!\n        emit EventCreateOrder(_FileID, _orderID, BayFile.Price);\n    }\n\n\n    function approveOrder(uint _orderID, bool _approve) public {\n        require(allOrders.length >= _orderID);\n        require(msg.sender == allOrders[_orderID].BayerAddress || msg.sender == dbFiles[allOrders[_orderID].FileID].Owner);\n        oneOrder storage _order = allOrders[_orderID];\n        sFile memory _fileInfo = dbFiles[_order.FileID];\n        address _owner = _fileInfo.Owner;\n\n        if (msg.sender == _order.BayerAddress) {\n            _order.BayerApprove = _approve;\n        }\n        if (msg.sender == _owner) {\n            _order.OwnerApprove = _approve; //todo не передумывать ????\n        }\n        //todo если она true вызвать closeOrder\n         closeOrder(_orderID);\n    }\n\n    function closeOrder(uint _orderID) private {\n        oneOrder storage _order = allOrders[_orderID];\n        require(_order.isPayed == false, \"the order has been already payed\");\n\n        uint amount = _order.FixPrise;\n        address _owner = dbFiles[_order.FileID].Owner;\n        require(_order.OwnerApprove == true);\n        require(_order.BayerApprove == true);\n\n        _order.isPayed = true;\n        _owner.transfer(amount);\n    }\n\n    function searchOrder(uint _fileID) view public returns(uint) {\n        oneOrder memory _order;\n        for (uint i=0; i < allOrders.length; i++) {\n            _order = allOrders[i];\n\n            if (msg.sender != _order.BayerAddress) {\n                continue;\n            }\n\n            if (_order.FileID == _fileID) {\n                return i;\n            }\n            // кажись так цикл не остановить ((\n        }\n    }\n}",
  "sourcePath": "/Users/victor/Documents/Blockchain/week7/marketplace/contracts/MarketPlace.sol",
  "compiler": {
    "name": "solc",
    "version": "0.4.24+commit.e67f0147.Emscripten.clang"
  },
  "schemaVersion": "2.0.1",
  "updatedAt": "2018-10-08T13:46:10.416Z"
}