{
  "contractName": "MarketPlace",
  "abi": [
    {
      "inputs": [],
      "payable": false,
      "stateMutability": "nonpayable",
      "type": "constructor"
    },
    {
      "constant": false,
      "inputs": [
        {
          "name": "_name",
          "type": "string"
        },
        {
          "name": "_Hash",
          "type": "bytes32"
        },
        {
          "name": "_SwarmHash",
          "type": "bytes32"
        },
        {
          "name": "_Price",
          "type": "uint256"
        },
        {
          "name": "_Description",
          "type": "string"
        }
      ],
      "name": "addFile",
      "outputs": [],
      "payable": false,
      "stateMutability": "nonpayable",
      "type": "function"
    },
    {
      "constant": false,
      "inputs": [
        {
          "name": "_FileID",
          "type": "uint256"
        }
      ],
      "name": "createOrder",
      "outputs": [],
      "payable": true,
      "stateMutability": "payable",
      "type": "function"
    },
    {
      "constant": false,
      "inputs": [
        {
          "name": "_orderID",
          "type": "uint256"
        },
        {
          "name": "_approve",
          "type": "bool"
        }
      ],
      "name": "approveOrder",
      "outputs": [],
      "payable": false,
      "stateMutability": "nonpayable",
      "type": "function"
    },
    {
      "constant": true,
      "inputs": [
        {
          "name": "_fileID",
          "type": "uint256"
        }
      ],
      "name": "searchOrder",
      "outputs": [
        {
          "name": "",
          "type": "uint256"
        }
      ],
      "payable": false,
      "stateMutability": "view",
      "type": "function"
    }
  ],
  "bytecode": "0x608060405234801561001057600080fd5b50611085806100206000396000f300608060405260043610610062576000357c0100000000000000000000000000000000000000000000000000000000900463ffffffff168063c0b6213614610067578063c57666be146100a0578063f8ad8cd7146100e1578063ff29eb9b14610101575b600080fd5b34801561007357600080fd5b5061009e600480360381019080803590602001909291908035151590602001909291905050506101d6565b005b3480156100ac57600080fd5b506100cb600480360381019080803590602001909291905050506104ea565b6040518082815260200191505060405180910390f35b6100ff60048036038101908080359060200190929190505050610655565b005b34801561010d57600080fd5b506101d4600480360381019080803590602001908201803590602001908080601f01602080910402602001604051908101604052809392919081815260200183838082843782019150505050505091929192908035600019169060200190929190803560001916906020019092919080359060200190929190803590602001908201803590602001908080601f01602080910402602001604051908101604052809392919081815260200183838082843782019150505050505091929192905050506109f8565b005b60006101e0610eff565b60006002858154811015156101f157fe5b906000526020600020906004020192506000836000015481548110151561021457fe5b90600052602060002090600802016101006040519081016040529081600082018054600181600116156101000203166002900480601f0160208091040260200160405190810160405280929190818152602001828054600181600116156101000203166002900480156102c85780601f1061029d576101008083540402835291602001916102c8565b820191906000526020600020905b8154815290600101906020018083116102ab57829003601f168201915b5050505050815260200160018201546000191660001916815260200160028201546000191660001916815260200160038201548152602001600482018054600181600116156101000203166002900480601f0160208091040260200160405190810160405280929190818152602001828054600181600116156101000203166002900480156103985780601f1061036d57610100808354040283529160200191610398565b820191906000526020600020905b81548152906001019060200180831161037b57829003601f168201915b5050505050815260200160058201548152602001600682015481526020016007820160009054906101000a900473ffffffffffffffffffffffffffffffffffffffff1673ffffffffffffffffffffffffffffffffffffffff1673ffffffffffffffffffffffffffffffffffffffff168152505091508160e0015190508260010160009054906101000a900473ffffffffffffffffffffffffffffffffffffffff1673ffffffffffffffffffffffffffffffffffffffff163373ffffffffffffffffffffffffffffffffffffffff16141561048957838360010160156101000a81548160ff0219169083151502179055505b8073ffffffffffffffffffffffffffffffffffffffff163373ffffffffffffffffffffffffffffffffffffffff1614156104da57838360010160146101000a81548160ff0219169083151502179055505b6104e385610d4e565b5050505050565b60006104f4610f61565b60008090505b60028054905081101561064d5760028181548110151561051657fe5b906000526020600020906004020160c06040519081016040529081600082015481526020016001820160009054906101000a900473ffffffffffffffffffffffffffffffffffffffff1673ffffffffffffffffffffffffffffffffffffffff1673ffffffffffffffffffffffffffffffffffffffff1681526020016001820160149054906101000a900460ff161515151581526020016001820160159054906101000a900460ff16151515158152602001600282015481526020016003820160009054906101000a900460ff1615151515815250509150816020015173ffffffffffffffffffffffffffffffffffffffff163373ffffffffffffffffffffffffffffffffffffffff1614151561062b57610640565b838260000151141561063f5780925061064e565b5b80806001019150506104fa565b5b5050919050565b61065d610eff565b6000808381548110151561066d57fe5b90600052602060002090600802016101006040519081016040529081600082018054600181600116156101000203166002900480601f0160208091040260200160405190810160405280929190818152602001828054600181600116156101000203166002900480156107215780601f106106f657610100808354040283529160200191610721565b820191906000526020600020905b81548152906001019060200180831161070457829003601f168201915b5050505050815260200160018201546000191660001916815260200160028201546000191660001916815260200160038201548152602001600482018054600181600116156101000203166002900480601f0160208091040260200160405190810160405280929190818152602001828054600181600116156101000203166002900480156107f15780601f106107c6576101008083540402835291602001916107f1565b820191906000526020600020905b8154815290600101906020018083116107d457829003601f168201915b5050505050815260200160058201548152602001600682015481526020016007820160009054906101000a900473ffffffffffffffffffffffffffffffffffffffff1673ffffffffffffffffffffffffffffffffffffffff1673ffffffffffffffffffffffffffffffffffffffff1681525050915034826060015114151561087857600080fd5b600260c0604051908101604052808581526020013373ffffffffffffffffffffffffffffffffffffffff1681526020016000151581526020016000151581526020018460600151815260200160001515815250908060018154018082558091505090600182039060005260206000209060040201600090919290919091506000820151816000015560208201518160010160006101000a81548173ffffffffffffffffffffffffffffffffffffffff021916908373ffffffffffffffffffffffffffffffffffffffff16021790555060408201518160010160146101000a81548160ff02191690831515021790555060608201518160010160156101000a81548160ff0219169083151502179055506080820151816002015560a08201518160030160006101000a81548160ff021916908315150217905550505090506003600082815260200190815260200160002060009054906101000a9050506004600082815260200190815260200160002060009054906101000a905050505050565b6000806060600080600160003373ffffffffffffffffffffffffffffffffffffffff1673ffffffffffffffffffffffffffffffffffffffff1681526020019081526020016000208054905094506000851415610aba5760053390806001815401808255809150509060018203906000526020600020016000909192909190916101000a81548173ffffffffffffffffffffffffffffffffffffffff021916908373ffffffffffffffffffffffffffffffffffffffff1602179055509350610b89565b600160003373ffffffffffffffffffffffffffffffffffffffff1673ffffffffffffffffffffffffffffffffffffffff168152602001908152602001600020805480602002602001604051908101604052809291908181526020018280548015610b4357602002820191906000526020600020905b815481526020019060010190808311610b2f575b50505050509250826000815181101515610b5957fe5b906020019060200201519150600082815481101515610b7457fe5b90600052602060002090600802016006015493505b60008054905090506000610100604051908101604052808c81526020018b6000191681526020018a6000191681526020018981526020018881526020018381526020018681526020013373ffffffffffffffffffffffffffffffffffffffff16815250908060018154018082558091505090600182039060005260206000209060080201600090919290919091506000820151816000019080519060200190610c33929190610fb4565b506020820151816001019060001916905560408201518160020190600019169055606082015181600301556080820151816004019080519060200190610c7a929190610fb4565b5060a0820151816005015560c0820151816006015560e08201518160070160006101000a81548173ffffffffffffffffffffffffffffffffffffffff021916908373ffffffffffffffffffffffffffffffffffffffff160217905550505050600160003373ffffffffffffffffffffffffffffffffffffffff1673ffffffffffffffffffffffffffffffffffffffff16815260200190815260200160002081908060018154018082558091505090600182039060005260206000200160009091929091909150555050505050505050505050565b6000806000600284815481101515610d6257fe5b90600052602060002090600402019250600015158360030160009054906101000a900460ff161515141515610dff576040517f08c379a00000000000000000000000000000000000000000000000000000000081526004018080602001828103825260208152602001807f746865206f7264657220686173206265656e20616c726561647920706179656481525060200191505060405180910390fd5b8260020154915060008360000154815481101515610e1957fe5b906000526020600020906008020160070160009054906101000a900473ffffffffffffffffffffffffffffffffffffffff169050600115158360010160149054906101000a900460ff161515141515610e7157600080fd5b600115158360010160159054906101000a900460ff161515141515610e9557600080fd5b60018360030160006101000a81548160ff0219169083151502179055508073ffffffffffffffffffffffffffffffffffffffff166108fc839081150290604051600060405180830381858888f19350505050158015610ef8573d6000803e3d6000fd5b5050505050565b6101006040519081016040528060608152602001600080191681526020016000801916815260200160008152602001606081526020016000815260200160008152602001600073ffffffffffffffffffffffffffffffffffffffff1681525090565b60c06040519081016040528060008152602001600073ffffffffffffffffffffffffffffffffffffffff168152602001600015158152602001600015158152602001600081526020016000151581525090565b828054600181600116156101000203166002900490600052602060002090601f016020900481019282601f10610ff557805160ff1916838001178555611023565b82800160010185558215611023579182015b82811115611022578251825591602001919060010190611007565b5b5090506110309190611034565b5090565b61105691905b8082111561105257600081600090555060010161103a565b5090565b905600a165627a7a7230582095ed8694a1a37a327cbf79492a350115206ec1c2cd72d60492f34dcc9c32fa390029",
  "source": "pragma solidity ^0.4.0;\n//pragma experimental ABIEncoderV2;\n\ncontract MarketPlace {\n    constructor() public {}\n\n    struct sFile {\n        string Name;\n        bytes32 Hash;\n        bytes32 SwarmHash;\n        uint Price;\n        string Description;\n        uint FileID;\n        uint SellerID;\n        address Owner;\n        //todo категории\n    }\n\n    struct oneOrder { // планируется для отслеживания подтверждения, что все получили чего хотели.\n        //uint OrderID;\n        uint FileID;\n        address BayerAddress;\n        bool OwnerApprove; // согласие завершение сделки со стороны владельца ресурса\n        bool BayerApprove; // согласие завершение сделки со стороны покупателя\n        uint FixPrise; // стоимость для фиксирования цены\n        bool isPayed;\n\n\n        // берем из dbFiles[oneOrder.FileID]\n        //        string Name;\n        //        bytes32 Hash;\n        //        bytes32 SwarmHash;\n        //        uint Price;\n        //        string Description;\n        //\n    }\n\n\n    //  mapping(address => sFile[]) dbFile;\n    sFile[] dbFiles;\n    mapping(address => uint[]) sellerFileIDs;\n   // mapping(address => uint) deposit;\n\n    oneOrder[] allOrders;\n    mapping(uint => address) ownerOrdersID; //fixme записть заказов хромает надо сделать приятней, и ниже тоже\n    mapping(uint => address) bayersOrdersID; //fixme да и тут\n\n    address[] allVendorsAtTheCurrentMoment; // для проверки: есть ли такой продавец\n\n    function addFile(string _name, bytes32 _Hash, bytes32 _SwarmHash, uint _Price, string _Description) public {\n        uint _fileCount = sellerFileIDs[msg.sender].length;\n        uint _SellerID;\n        if (_fileCount == 0) {\n            _SellerID = allVendorsAtTheCurrentMoment.push(msg.sender);\n        } else {\n            uint[] memory sellerFilesIDs = sellerFileIDs[msg.sender];\n            uint sellerFirstFileID = sellerFilesIDs[0];\n            _SellerID = dbFiles[sellerFirstFileID].SellerID;\n        }\n\n        uint _FileID = dbFiles.length;\n        dbFiles.push(sFile(_name, _Hash, _SwarmHash, _Price, _Description, _FileID, _SellerID, msg.sender));\n        sellerFileIDs[msg.sender].push(_FileID);\n        //todo log file added event\n    }\n\n//    function list() public view returns(sFile[]) {\n//        sFile[] memory _allfiles;\n//        for (uint i = 0; i < dbFiles.length; i++) {\n//            _allfiles.push(dbFiles[i]);\n//        }\n//        return _allfiles;\n//\n//    }\n\n    mapping(address => uint) deposits;\n\n    function createOrder(uint _FileID) public payable {\n        // todo проверка ссуммы стоимости модели\n        sFile memory BayFile = dbFiles[_FileID];\n        require(BayFile.Price == msg.value);\n//        deposits[msg.sender] += msg.value;\n        uint _orderID = allOrders.push(oneOrder(_FileID, msg.sender, false, false, BayFile.Price, false));\n        ownerOrdersID[_orderID];\n        // fixme исправить !!!!\n        bayersOrdersID[_orderID];\n        // fixme исправить !!!!\n\n    }\n\n\n    function approveOrder(uint _orderID, bool _approve) public {\n        oneOrder storage _order = allOrders[_orderID];\n        sFile memory _fileInfo = dbFiles[_order.FileID];\n        address _owner = _fileInfo.Owner;\n\n        if (msg.sender == _order.BayerAddress) {\n            _order.BayerApprove = _approve;\n        }\n        if (msg.sender == _owner) {\n            _order.OwnerApprove = _approve; //todo не передумывать ????\n        }\n        //todo если она true вызвать closeOrder\n         closeOrder(_orderID);\n    }\n\n    function closeOrder(uint _orderID) private {\n        oneOrder storage _order = allOrders[_orderID];\n        require(_order.isPayed == false, \"the order has been already payed\");\n\n        uint amount = _order.FixPrise;\n        address _owner = dbFiles[_order.FileID].Owner;\n        require(_order.OwnerApprove == true);\n        require(_order.BayerApprove == true);\n\n        _order.isPayed = true;\n        _owner.transfer(amount);\n    }\n\n    function searchOrder(uint _fileID) view public returns(uint) {\n        oneOrder memory _order;\n        for (uint i=0; i < allOrders.length; i++) {\n            _order = allOrders[i];\n\n            if (msg.sender != _order.BayerAddress) {\n                continue;\n            }\n\n            if (_order.FileID == _fileID) {\n                return i;\n            }\n            // кажись так цикл не остановить ((\n        }\n    }\n}",
  "sourcePath": "/Users/victor/Documents/Blockchain/week7/marketplace/contracts/MarketPlace.sol",
  "compiler": {
    "name": "solc",
    "version": "0.4.24+commit.e67f0147.Emscripten.clang"
  },
  "schemaVersion": "2.0.1",
  "updatedAt": "2018-10-04T13:24:54.503Z"
}