{
  "contractName": "MarketPlace",
  "abi": [
    {
      "inputs": [],
      "payable": false,
      "stateMutability": "nonpayable",
      "type": "constructor"
    },
    {
      "anonymous": false,
      "inputs": [
        {
          "indexed": false,
          "name": "_name",
          "type": "string"
        },
        {
          "indexed": false,
          "name": "_Hash",
          "type": "bytes32"
        },
        {
          "indexed": false,
          "name": "_SwarmHash",
          "type": "bytes32"
        },
        {
          "indexed": false,
          "name": "_Price",
          "type": "uint256"
        },
        {
          "indexed": false,
          "name": "_Description",
          "type": "string"
        },
        {
          "indexed": false,
          "name": "_FileID",
          "type": "uint256"
        },
        {
          "indexed": false,
          "name": "_SellerID",
          "type": "uint256"
        },
        {
          "indexed": false,
          "name": "_owner",
          "type": "address"
        }
      ],
      "name": "NewFile",
      "type": "event"
    },
    {
      "anonymous": false,
      "inputs": [
        {
          "indexed": false,
          "name": "_FileID",
          "type": "uint256"
        },
        {
          "indexed": false,
          "name": "_orderID",
          "type": "uint256"
        },
        {
          "indexed": false,
          "name": "_price",
          "type": "uint256"
        }
      ],
      "name": "EventCreateOrder",
      "type": "event"
    },
    {
      "anonymous": false,
      "inputs": [
        {
          "indexed": false,
          "name": "_owner",
          "type": "bool"
        },
        {
          "indexed": false,
          "name": "bayer",
          "type": "bool"
        },
        {
          "indexed": false,
          "name": "statusTransaktion",
          "type": "string"
        }
      ],
      "name": "eventApproveOrder",
      "type": "event"
    },
    {
      "anonymous": false,
      "inputs": [
        {
          "indexed": false,
          "name": "_orderID",
          "type": "uint256"
        },
        {
          "indexed": false,
          "name": "_complaint",
          "type": "string"
        },
        {
          "indexed": false,
          "name": "_owner",
          "type": "address"
        },
        {
          "indexed": false,
          "name": "_bayer",
          "type": "address"
        }
      ],
      "name": "createDisputEvent",
      "type": "event"
    },
    {
      "constant": false,
      "inputs": [
        {
          "name": "_name",
          "type": "string"
        },
        {
          "name": "_Hash",
          "type": "bytes32"
        },
        {
          "name": "_SwarmHash",
          "type": "bytes32"
        },
        {
          "name": "_Price",
          "type": "uint256"
        },
        {
          "name": "_Description",
          "type": "string"
        }
      ],
      "name": "addFile",
      "outputs": [],
      "payable": false,
      "stateMutability": "nonpayable",
      "type": "function"
    },
    {
      "constant": false,
      "inputs": [
        {
          "name": "_FileID",
          "type": "uint256"
        }
      ],
      "name": "createOrder",
      "outputs": [],
      "payable": true,
      "stateMutability": "payable",
      "type": "function"
    },
    {
      "constant": false,
      "inputs": [
        {
          "name": "_orderID",
          "type": "uint256"
        },
        {
          "name": "_approve",
          "type": "bool"
        }
      ],
      "name": "approveOrder",
      "outputs": [],
      "payable": false,
      "stateMutability": "nonpayable",
      "type": "function"
    },
    {
      "constant": true,
      "inputs": [
        {
          "name": "_fileID",
          "type": "uint256"
        }
      ],
      "name": "searchOrder",
      "outputs": [
        {
          "name": "",
          "type": "uint256"
        }
      ],
      "payable": false,
      "stateMutability": "view",
      "type": "function"
    },
    {
      "constant": false,
      "inputs": [
        {
          "name": "_orderID",
          "type": "uint256"
        }
      ],
      "name": "canselOrder",
      "outputs": [],
      "payable": false,
      "stateMutability": "nonpayable",
      "type": "function"
    },
    {
      "constant": false,
      "inputs": [],
      "name": "addDepositArbitrator",
      "outputs": [],
      "payable": true,
      "stateMutability": "payable",
      "type": "function"
    },
    {
      "constant": false,
      "inputs": [],
      "name": "becomeANarbitrator",
      "outputs": [],
      "payable": true,
      "stateMutability": "payable",
      "type": "function"
    },
    {
      "constant": false,
      "inputs": [
        {
          "name": "_orderID",
          "type": "uint256"
        },
        {
          "name": "_complaint",
          "type": "string"
        }
      ],
      "name": "createDisput",
      "outputs": [],
      "payable": false,
      "stateMutability": "nonpayable",
      "type": "function"
    },
    {
      "constant": false,
      "inputs": [
        {
          "name": "_orderID",
          "type": "uint256"
        },
        {
          "name": "_comments",
          "type": "string"
        }
      ],
      "name": "callArbitrator",
      "outputs": [],
      "payable": false,
      "stateMutability": "nonpayable",
      "type": "function"
    },
    {
      "constant": false,
      "inputs": [
        {
          "name": "_orderID",
          "type": "uint256"
        }
      ],
      "name": "setArbitr",
      "outputs": [
        {
          "name": "",
          "type": "uint256"
        }
      ],
      "payable": false,
      "stateMutability": "nonpayable",
      "type": "function"
    }
  ],
  "bytecode": "0x608060405234801561001057600080fd5b50611aa3806100206000396000f3006080604052600436106100a35763ffffffff7c01000000000000000000000000000000000000000000000000000000006000350416630f894e9a81146100a85780631ca74ef9146100b2578063709a115c146100ba57806390e0a44e14610118578063c0b6213614610142578063c57666be1461015f578063ea34369614610177578063f5ed0c87146101d5578063f8ad8cd7146101ed578063ff29eb9b146101f8575b600080fd5b6100b06102a1565b005b6100b0610311565b3480156100c657600080fd5b5060408051602060046024803582810135601f81018590048502860185019096528585526100b095833595369560449491939091019190819084018382808284375094975061033b9650505050505050565b34801561012457600080fd5b506101306004356103ab565b60408051918252519081900360200190f35b34801561014e57600080fd5b506100b060043560243515156103f4565b34801561016b57600080fd5b506101306004356108c3565b34801561018357600080fd5b5060408051602060046024803582810135601f81018590048502860185019096528585526100b09583359536956044949193909101919081908401838280828437509497506109c19650505050505050565b3480156101e157600080fd5b506100b0600435610c5c565b6100b0600435610e1d565b34801561020457600080fd5b506040805160206004803580820135601f81018490048402850184019095528484526100b094369492936024939284019190819084018382808284375050604080516020601f60608a01358b0180359182018390048302840183018552818452989b8a359b838c01359b958601359a9199509750608090940195509193509182019181908401838280828437509497506112c59650505050505050565b3360009081526006602052604090205460038054829081106102bf57fe5b600091825260209091206004600590920201015460ff1615156001146102e457600080fd5b346003828154811015156102f457fe5b600091825260209091206003600590920201018054909101905550565b34600a111561031f57600080fd5b6103293334611686565b33600090815260066020526040902055565b6000828152600760205260409020600481015462010000900460ff161561036157600080fd5b805442620d2f009091011061037557600080fd5b61037e836103ab565b50815161039490600583019060208501906118fb565b50600401805462ff00001916620100001790555050565b600090815260076020526040812060068101805473ffffffffffffffffffffffffffffffffffffffff1990811690915560088201805482169055600a9091018054909116905590565b60006103fe611979565b60025460009085111561045b576040805160e560020a62461bcd02815260206004820152601760248201527f676976656e20756e65786973746564206f726465724944000000000000000000604482015290519081900360640190fd5b600280548690811061046957fe5b6000918252602082206004909102018054825491955090811061048857fe5b60009182526020918290206040805160089390930290910180546002610100600183161581026000190190921604601f8101869004909502840161012090810190935283018481529293909284929091849184018282801561052b5780601f106105005761010080835404028352916020019161052b565b820191906000526020600020905b81548152906001019060200180831161050e57829003601f168201915b50505091835250506001828101546020808401919091526002808501546040808601919091526003860154606086015260048601805482516000199682161561010002969096011692909204601f810184900484028501840190915280845260809094019390918301828280156105e35780601f106105b8576101008083540402835291602001916105e3565b820191906000526020600020905b8154815290600101906020018083116105c657829003601f168201915b50505091835250506005820154602082015260068201546040820152600790910154600160a060020a0390811660609092019190915260e0820151600186015492945092501633148061064b57508160e00151600160a060020a031633600160a060020a0316145b15156106a1576040805160e560020a62461bcd02815260206004820152601d60248201527f77726f6e67206275796572206f722073656c6c65722061646472657373000000604482015290519081900360640190fd5b6001830154600160a060020a03163314156107575760018301805475ff000000000000000000000000000000000000000000191660a860020a861515810291909117918290556040805160ff60a060020a850481161515825292909304909116151560208301526060828201819052600e908301527f6e6f207472616e73616374696f6e000000000000000000000000000000000000608083015251600080516020611a588339815191529160a0908290030190a15b33600160a060020a03821614156108085760018301805474ff0000000000000000000000000000000000000000191660a060020a861515810291909117918290556040805160ff92840483161515815260a860020a909304909116151560208301526060828201819052600e908301527f6e6f207472616e73616374696f6e000000000000000000000000000000000000608083015251600080516020611a588339815191529160a0908290030190a15b60018381015460a060020a900460ff161515148015610836575060018381015460a860020a900460ff161515145b156108bc57610844856117c0565b60018301546040805160ff60a060020a840481161515825260a860020a909304909216151560208301526060828201819052600b908301527f5472616e73616374696f6e000000000000000000000000000000000000000000608083015251600080516020611a588339815191529181900360a00190a15b5050505050565b60006108cd6119bc565b60005b6002548110156109ba5760028054829081106108e857fe5b60009182526020918290206040805160e0810182526004909302909101805483526001810154600160a060020a0381169484019490945260ff60a060020a8504811615159284019290925260a860020a90930481161515606083015260028084015460808401526003840154808316151560a085015292939260c0850192610100909104169081111561097757fe5b600281111561098257fe5b9052506020810151909250600160a060020a031633146109a1576109b2565b81518414156109b2578092506109ba565b6001016108d0565b5050919050565b600080600060606109d06119f6565b60028054889081106109de57fe5b600091825260208220600490910201805482549197509081106109fd57fe5b6000918252602090912060018701546008909202019450600160a060020a0316331480610a3657506007840154600160a060020a031633145b1515610a4157600080fd5b60006003860154610100900460ff166002811115610a5b57fe5b14610a6557600080fd5b6003850180546001919061ff00191661010083021790555060408051610140810182524281523360208083019182528284018a81526060840187905260006080850181905260a0850181905260c0850181905260e085018890526101008501879052600160a060020a038981166101208701528d82526007845295902084518155925160018401805473ffffffffffffffffffffffffffffffffffffffff191691909616179094559251805192939192610b2592600285019201906118fb565b5060608201518051610b419160038401916020909101906118fb565b50608082015160048201805460a085015160c08601511515620100000262ff0000199115156101000261ff001995151560ff199094169390931794909416919091171691909117905560e08201518051610ba59160058401916020909101906118fb565b50610100820151805160068301805473ffffffffffffffffffffffffffffffffffffffff19908116600160a060020a03938416179091556020830151600785015560408301516008850180548316918416919091179055606083015160098501556080830151600a85018054831691841691909117905560a0830151600b85015560c0830151600c85015560e090920151600d84015561012090930151600e90920180549091169190921617905550505050505050565b6000806000600284815481101515610c7057fe5b60009182526020909120600490910201600181015490935060a060020a900460ff16158015610cab5750600183015460a860020a900460ff16155b1515610cb657600080fd5b600383015460ff1615610d13576040805160e560020a62461bcd02815260206004820181905260248201527f746865206f7264657220686173206265656e20616c7265616479207061796564604482015290519081900360640190fd5b60016003840154610100900460ff166002811115610d2d57fe5b1415610d3857600080fd5b6001830154600160a060020a03169150338214610d5457600080fd5b50600282015460038301805460ff19166001179055604051600160a060020a0383169082156108fc029083906000818181858888f19350505050158015610d9f573d6000803e3d6000fd5b5060018301546040805160ff60a060020a840481161515825260a860020a909304909216151560208301526060828201819052600b908301527f5472616e73616374696f6e000000000000000000000000000000000000000000608083015251600080516020611a588339815191529181900360a00190a150505050565b610e25611979565b60008083815481101515610e3557fe5b60009182526020918290206040805160089390930290910180546002610100600183161581026000190190921604601f81018690049095028401610120908101909352830184815292939092849290918491840182828015610ed85780601f10610ead57610100808354040283529160200191610ed8565b820191906000526020600020905b815481529060010190602001808311610ebb57829003601f168201915b50505091835250506001828101546020808401919091526002808501546040808601919091526003860154606086015260048601805482516000199682161561010002969096011692909204601f81018490048402850184019091528084526080909401939091830182828015610f905780601f10610f6557610100808354040283529160200191610f90565b820191906000526020600020905b815481529060010190602001808311610f7357829003601f168201915b50505091835250506005820154602082015260068201546040820152600790910154600160a060020a0316606090910152600054909250831115611044576040805160e560020a62461bcd02815260206004820152603b60248201527fd0a4d0b0d0b9d0bb20d18120d183d0bad0b0d0b7d0b0d0bdd0bdd18bd0bc204960448201527f4420d0bdd0b520d181d183d189d0b5d181d182d0b2d183d0b5d1820000000000606482015290519081900360840190fd5b60608201513410156110c6576040805160e560020a62461bcd02815260206004820152602c60248201527f676976656e206d6f6e65792073686f756c64206265206772656174657220746860448201527f616e207468652070726963650000000000000000000000000000000000000000606482015290519081900360840190fd5b6040805160e081018252848152336020820190815260009282018381526060808401858152908701516080850190815260a0850186815260c086018781526002805460018181018084559a839052895160049092027f405787fa12a823e0f2b7631cc41b3ba8828b3321ca811111fa75cd3aa3bb5ace810192835598517f405787fa12a823e0f2b7631cc41b3ba8828b3321ca811111fa75cd3aa3bb5acf8a0180549951985173ffffffffffffffffffffffffffffffffffffffff19909a16600160a060020a039092169190911774ff0000000000000000000000000000000000000000191660a060020a981515989098029790971775ff000000000000000000000000000000000000000000191660a860020a981515989098029790971790955592517f405787fa12a823e0f2b7631cc41b3ba8828b3321ca811111fa75cd3aa3bb5ad087015590517f405787fa12a823e0f2b7631cc41b3ba8828b3321ca811111fa75cd3aa3bb5ad1909501805460ff1916951515959095178086559051939695949293929161ff00199091169061010090849081111561126557fe5b02179055505050036000819052600560209081526060808501516040805188815293840185905283810191909152519293507f8dfeb0267d301a3c68b6b58986366f04dfb03f5802faef1a6419f1cbc1109bba92918290030190a1505050565b3360009081526001602052604081205490606081808415156113385760088054600181018083556000929092527ff3f7a9fe364faab93b216da50a3214154f22a0a2b415b23a84c8169e8b636ee301805473ffffffffffffffffffffffffffffffffffffffff19163317905593506113d3565b336000908152600160209081526040918290208054835181840281018401909452808452909183018282801561138d57602002820191906000526020600020905b815481526020019060010190808311611379575b505050505092508260008151811015156113a357fe5b9060200190602002015191506000828154811015156113be57fe5b90600052602060002090600802016006015493505b506000805460408051610100810182528c815260208082018d90529181018b9052606081018a90526080810189905260a0810183905260c081018790523360e082015260018301808555938052805180519394939192600886027f290decd9548b62a8d60345a988386fc84ba6bc95484008f6362f93160ef3e563019261145d92849201906118fb565b50602082810151600183015560408301516002830155606083015160038301556080830151805161149492600485019201906118fb565b5060a0820151816005015560c0820151816006015560e08201518160070160006101000a815481600160a060020a030219169083600160a060020a031602179055505050506001600033600160a060020a0316600160a060020a031681526020019081526020016000208190806001815401808255809150509060018203906000526020600020016000909192909190915055507fa7d75d4f1f397d376eb2e26a8e05f28bb16bf9d62d56ecd14b2b44159032e4358a8a8a8a8a868a336040518080602001896000191660001916815260200188600019166000191681526020018781526020018060200186815260200185815260200184600160a060020a0316600160a060020a0316815260200183810383528b818151815260200191508051906020019080838360005b838110156115d85781810151838201526020016115c0565b50505050905090810190601f1680156116055780820380516001836020036101000a031916815260200191505b50838103825287518152875160209182019189019080838360005b83811015611638578181015183820152602001611620565b50505050905090810190601f1680156116655780820380516001836020036101000a031916815260200191505b509a505050505050505050505060405180910390a150505050505050505050565b6040805160a081018252600160a060020a0393841681526000602082018181529282018181526060830194855260016080840181815260038054928301815590935292517fc2575a0e9e593c00f959f8c92f12db2869c3395a3b0502d05e2516446f71f85b60058502908101805473ffffffffffffffffffffffffffffffffffffffff1916929098169190911790965592517fc2575a0e9e593c00f959f8c92f12db2869c3395a3b0502d05e2516446f71f85c86015591517fc2575a0e9e593c00f959f8c92f12db2869c3395a3b0502d05e2516446f71f85d85015591517fc2575a0e9e593c00f959f8c92f12db2869c3395a3b0502d05e2516446f71f85e840155517fc2575a0e9e593c00f959f8c92f12db2869c3395a3b0502d05e2516446f71f85f909201805460ff19169215159290921790915590565b60008060006002848154811015156117d457fe5b60009182526020909120600490910201600381015490935060ff1615611844576040805160e560020a62461bcd02815260206004820181905260248201527f746865206f7264657220686173206265656e20616c7265616479207061796564604482015290519081900360640190fd5b600283015483546000805492945091811061185b57fe5b6000918252602090912060089091020160070154600184810154600160a060020a03909216925060a060020a90910460ff1615151480156118ab575060018381015460a860020a900460ff161515145b156118f55760038301805460ff19166001179055604051600160a060020a0382169083156108fc029084906000818181858888f193505050501580156108bc573d6000803e3d6000fd5b50505050565b828054600181600116156101000203166002900490600052602060002090601f016020900481019282601f1061193c57805160ff1916838001178555611969565b82800160010185558215611969579182015b8281111561196957825182559160200191906001019061194e565b50611975929150611a3a565b5090565b60408051610100810182526060808252600060208301819052928201839052808201839052608082015260a0810182905260c0810182905260e081019190915290565b6040805160e081018252600080825260208201819052918101829052606081018290526080810182905260a081018290529060c082015290565b6040805161010081018252600080825260208201819052918101829052606081018290526080810182905260a0810182905260c0810182905260e081019190915290565b611a5491905b808211156119755760008155600101611a40565b905600947e2832d9f0ef35e50ea91840d54dda1d0f87fdc4daeb1894bbb77e621ed139a165627a7a72305820d375ec95492a9c8f7137c51364842f46f69dd41f5eba3897d3a0d434047bd2570029",
  "source": "pragma solidity ^0.4.0;\n//pragma experimental ABIEncoderV2;\n\ncontract MarketPlace {\n    constructor() public {}\n\n    struct sFile {\n        string Name;\n        bytes32 Hash;\n        bytes32 SwarmHash;\n        uint Price;\n        string Description;\n        uint FileID;\n        uint SellerID;\n        address Owner;\n\n    }\n\n    enum statusDisput {empty,exist,close}\n\n    struct oneOrder {// планируется для отслеживания подтверждения, что все получили чего хотели.\n        //uint OrderID;\n        uint FileID;\n        address BayerAddress;\n        bool OwnerApprove; // согласие завершение сделки со стороны владельца ресурса\n        bool BayerApprove; // согласие завершение сделки со стороны покупателя\n        uint FixPrise; // стоимость для фиксирования цены\n        bool IsPayed;\n        statusDisput ExistDisput;\n\n    }\n\n    struct arbitrator {\n        address arbitratorAddress;\n        // uint ID;\n        uint DisputCount;\n        uint Rating;\n        uint Deposit; ///всю инфу хранитьтут мапинг по адресу на все данные арбитра\n        bool Exist;\n        //\n    }\n    struct voting {\n        address arbitr1;\n        bytes32 arbitr1voteHash; // кто из арбитров 1 2 3\n        address arbitr2;\n        bytes32 arbitr2voteHash;\n        address arbitr3;\n        bytes32 arbitr3voteHash;\n        uint toOwner;\n        uint toBayer;\n    }\n\n    struct disput {//todo: структура споров в массиве и id спора записывать продавцу\n        uint DateCreateDisput;\n        address WhoCreateDisput;\n        string Complaint; //суть притензии\n        string AnswerComplaint; // ответочка\n        bool ConsentOwner;\n        bool ConsentBayer;\n        bool CallArbitr;\n        string arbirtatorComment;\n        voting DisputVoting;\n        address closedDispute_in_Favor;\n\n    }\n    // fixme насморк замучил немогу, только и бегаю до ванны и обратно 5 утра поеду в аптеку ((((\n    //mapping(address=>uint[]) arbitrationDisputs; // не уверен что эир мне надо\n\n    event NewFile(string _name, bytes32 _Hash, bytes32 _SwarmHash, uint _Price,\n        string _Description, uint _FileID, uint _SellerID, address _owner);\n\n    //  mapping(address => sFile[]) dbFile;\n    sFile[] dbFiles;\n    mapping(address => uint[]) sellerFileIDs;\n    //mapping(uint => arbitrator[]) arbitratorDB; //ID арбитра на структуру с всеми данными по ниму\n    // address[] arbitratorID; //массив адресов арбитров номер - адрес\n    // mapping(address => uint) deposit;\n\n    oneOrder[] allOrders;\n    arbitrator[] allArbitrator; //арбитры\n    mapping(uint => address) ownerOrdersID;\n    mapping(uint => address) bayersOrdersID;\n    mapping(address => uint) arbitratorID;\n    mapping(uint => disput) allDisput;\n\n\n    //disput[] allDisput; //сюда будем заносить споры fixme: переделать на mapping uint - > disput ( где uint orderID )\n    //todo (возможно создать структуру покупателя с занесением информации о спорах)\n\n    //mapping //идея заключается в сохранении номерСпора=>адбитры\n\n\n    address[] allVendorsAtTheCurrentMoment; // для проверки: есть ли такой продавец\n    // todo при создании файла нужно внести депозит\n    function addFile(string _name, bytes32 _Hash, bytes32 _SwarmHash, uint _Price, string _Description) public {\n        uint _fileCount = sellerFileIDs[msg.sender].length;\n        uint _SellerID;\n        if (_fileCount == 0) {\n            _SellerID = allVendorsAtTheCurrentMoment.push(msg.sender);\n        } else {\n            uint[] memory sellerFilesIDs = sellerFileIDs[msg.sender];\n            uint sellerFirstFileID = sellerFilesIDs[0];\n            _SellerID = dbFiles[sellerFirstFileID].SellerID;\n        }\n\n        uint _FileID = dbFiles.length;\n        dbFiles.push(sFile(_name, _Hash, _SwarmHash, _Price, _Description, _FileID, _SellerID, msg.sender));\n        sellerFileIDs[msg.sender].push(_FileID);\n\n        emit NewFile(_name, _Hash, _SwarmHash, _Price, _Description, _FileID, _SellerID, msg.sender);\n    }\n\n    //    function list() public view returns(sFile[]) {\n    //        sFile[] memory _allfiles;\n    //        for (uint i = 0; i < dbFiles.length; i++) {\n    //            _allfiles.push(dbFiles[i]);\n    //        }\n    //        return _allfiles;\n    //\n    //    }\n\n\n    event EventCreateOrder(uint _FileID, uint _orderID, uint _price);\n\n    function createOrder(uint _FileID) public payable {\n        sFile memory BayFile = dbFiles[_FileID];\n        require(dbFiles.length >= _FileID, \"Файл с указанным ID не существует\");\n        require(BayFile.Price <= msg.value, \"given money should be greater than the price\");\n        uint _orderID = allOrders.push(oneOrder(_FileID, msg.sender, false, false, BayFile.Price, false, statusDisput.empty)) - 1;\n        //0- статус спора; 0-ID спора\n        ownerOrdersID[_orderID];\n        bayersOrdersID[_orderID];\n        emit EventCreateOrder(_FileID, _orderID, BayFile.Price);\n    }\n\n    event eventApproveOrder(bool _owner, bool bayer, string statusTransaktion);\n\n    function approveOrder(uint _orderID, bool _approve) public {\n        require(allOrders.length >= _orderID, \"given unexisted orderID\");\n        //todo проверка открытого спора\n\n        oneOrder storage _order = allOrders[_orderID];\n        sFile memory _fileInfo = dbFiles[_order.FileID];\n        address _owner = _fileInfo.Owner;\n        require(msg.sender == _order.BayerAddress || msg.sender == _fileInfo.Owner, \"wrong buyer or seller address\");\n\n        if (msg.sender == _order.BayerAddress) {\n            _order.BayerApprove = _approve;\n            emit eventApproveOrder(_order.OwnerApprove, _order.BayerApprove, \"no transaction\");\n        }\n        if (msg.sender == _owner) {\n            _order.OwnerApprove = _approve;\n            emit eventApproveOrder(_order.OwnerApprove, _order.BayerApprove, \"no transaction\");\n        }\n        // если она true вызвать closeOrder\n        if (_order.OwnerApprove == true && _order.BayerApprove == true) {\n            closeOrder(_orderID);\n            emit eventApproveOrder(_order.OwnerApprove, _order.BayerApprove, \"Transaction\");\n        }\n\n    }\n\n    function closeOrder(uint _orderID) private {\n        oneOrder storage _order = allOrders[_orderID];\n        require(_order.IsPayed == false, \"the order has been already payed\");\n// кучу проверок по открытию диспута\n        uint amount = _order.FixPrise;\n        address _owner = dbFiles[_order.FileID].Owner;\n\n        if (_order.OwnerApprove == true && _order.BayerApprove == true) {\n            _order.IsPayed = true;\n            _owner.transfer(amount);\n        }\n    }\n\n    function searchOrder(uint _fileID) view public returns (uint) {\n        oneOrder memory _order;\n        for (uint i = 0; i < allOrders.length; i++) {\n            _order = allOrders[i];\n\n            if (msg.sender != _order.BayerAddress) {\n                continue;\n            }\n\n            if (_order.FileID == _fileID) {\n                return i;\n            }\n            // кажись так цикл не остановить ((\n        }\n    }\n\n    function canselOrder(uint _orderID) public {//todo создать функцию отмена заказа\n        oneOrder storage _order = allOrders[_orderID];\n        require(_order.OwnerApprove == false && _order.BayerApprove == false);\n        require(_order.IsPayed == false, \"the order has been already payed\");\n        require(_order.ExistDisput != statusDisput.exist);\n        address _bayerAddress = _order.BayerAddress;\n        require(_bayerAddress == msg.sender);\n        uint amount = _order.FixPrise;\n        _order.IsPayed = true;\n        _bayerAddress.transfer(amount);\n        emit eventApproveOrder(_order.OwnerApprove, _order.BayerApprove, \"Transaction\");\n\n    }\n\n    uint constant minArbitorDeposit = 10;\n\n    function addDepositArbitrator() public payable { // нужен тест\n        uint _ID1 = arbitratorID[msg.sender];\n        require(allArbitrator[_ID1].Exist == true);\n        allArbitrator[_ID1].Deposit += msg.value;\n    }\n\n    function becomeANarbitrator() public payable { //нужен тетт\n        require(minArbitorDeposit <= msg.value);\n        arbitratorID[msg.sender] = newArbitrator(msg.sender, msg.value);\n    }\n\n    function newArbitrator(address arbitr, uint _deposit) private returns (uint) { //тужен тест\n        return allArbitrator.push(arbitrator({\n            arbitratorAddress : arbitr,\n            Deposit : _deposit,\n            DisputCount : 0,\n            Rating : 0,\n            Exist : true\n            })) - 1;\n    }\n\n    event createDisputEvent(uint _orderID, string _complaint, address _owner, address _bayer); //нужен тест\n\n    function createDisput(uint _orderID, string _complaint) public {\n        oneOrder storage _order = allOrders[_orderID];\n        sFile storage _fileInfo = dbFiles[_order.FileID];\n        require(_order.BayerAddress == msg.sender || _fileInfo.Owner == msg.sender);\n        require(_order.ExistDisput == statusDisput.empty);\n        _order.ExistDisput = statusDisput.exist;\n        address _arbitrAddress;\n        string memory _emptiString;\n        voting memory empryVoting;\n      //  bytes32 _emptyHash;\n        allDisput[_orderID] = disput({\n            DateCreateDisput: now,\n            WhoCreateDisput: msg.sender,\n            Complaint: _complaint,\n            AnswerComplaint: _emptiString,\n            ConsentOwner: false,\n            ConsentBayer: false,\n            CallArbitr: false,\n            arbirtatorComment: _emptiString,\n            DisputVoting: empryVoting,\n            closedDispute_in_Favor: _arbitrAddress\n            });\n\n\n\n\n        //todo обращаемся к базе арбитров и назначаем 3х красавцев\n    }\n\n    function callArbitrator (uint _orderID, string _comments) public { //нужен тест\n        disput storage _disput = allDisput[_orderID];\n        require(_disput.CallArbitr == false);\n        require(_disput.DateCreateDisput + 10 days < now);\n        setArbitr(_orderID);\n        _disput.arbirtatorComment = _comments;\n        _disput.CallArbitr = true;\n\n    }\n\n    function setArbitr (uint _orderID) public returns(uint){ ///Нужен выбор арбитров\n        address _who; //fixme переделать на вызов функции рандомного выбора арбитров\n        disput storage _disput = allDisput[_orderID];\n        _disput.DisputVoting.arbitr1 = _who; //какой-то бред нуден или номер арбитра из массива или его адрес и мап с индексами\n        _disput.DisputVoting.arbitr2 = _who;\n        _disput.DisputVoting.arbitr3 = _who;\n\n    }\n\n\n\n// fixme голосование ____ отметка все что ниже надо редактировать\n// fixme\n\n\n}",
  "sourcePath": "/Users/victor/Documents/Blockchain/week7/marketplace/contracts/MarketPlace.sol",
  "compiler": {
    "name": "solc",
    "version": "0.4.24+commit.e67f0147.Emscripten.clang"
  },
  "schemaVersion": "2.0.1",
  "updatedAt": "2018-11-12T11:08:19.500Z"
}