{
  "contractName": "MarketPlace",
  "abi": [
    {
      "inputs": [],
      "payable": false,
      "stateMutability": "nonpayable",
      "type": "constructor"
    },
    {
      "anonymous": false,
      "inputs": [
        {
          "indexed": false,
          "name": "_name",
          "type": "string"
        },
        {
          "indexed": false,
          "name": "_Hash",
          "type": "bytes32"
        },
        {
          "indexed": false,
          "name": "_SwarmHash",
          "type": "bytes32"
        },
        {
          "indexed": false,
          "name": "_Price",
          "type": "uint256"
        },
        {
          "indexed": false,
          "name": "_Description",
          "type": "string"
        },
        {
          "indexed": false,
          "name": "_FileID",
          "type": "uint256"
        },
        {
          "indexed": false,
          "name": "_SellerID",
          "type": "uint256"
        },
        {
          "indexed": false,
          "name": "_owner",
          "type": "address"
        }
      ],
      "name": "NewFile",
      "type": "event"
    },
    {
      "anonymous": false,
      "inputs": [
        {
          "indexed": false,
          "name": "_FileID",
          "type": "uint256"
        },
        {
          "indexed": false,
          "name": "_orderID",
          "type": "uint256"
        },
        {
          "indexed": false,
          "name": "_price",
          "type": "uint256"
        }
      ],
      "name": "EventCreateOrder",
      "type": "event"
    },
    {
      "anonymous": false,
      "inputs": [
        {
          "indexed": false,
          "name": "_owner",
          "type": "bool"
        },
        {
          "indexed": false,
          "name": "bayer",
          "type": "bool"
        },
        {
          "indexed": false,
          "name": "statusTransaktion",
          "type": "string"
        }
      ],
      "name": "eventApproveOrder",
      "type": "event"
    },
    {
      "anonymous": false,
      "inputs": [
        {
          "indexed": false,
          "name": "_orderID",
          "type": "uint256"
        },
        {
          "indexed": false,
          "name": "_complaint",
          "type": "string"
        },
        {
          "indexed": false,
          "name": "_owner",
          "type": "address"
        },
        {
          "indexed": false,
          "name": "_bayer",
          "type": "address"
        }
      ],
      "name": "createDisputEvent",
      "type": "event"
    },
    {
      "constant": false,
      "inputs": [
        {
          "name": "_name",
          "type": "string"
        },
        {
          "name": "_Hash",
          "type": "bytes32"
        },
        {
          "name": "_SwarmHash",
          "type": "bytes32"
        },
        {
          "name": "_Price",
          "type": "uint256"
        },
        {
          "name": "_Description",
          "type": "string"
        }
      ],
      "name": "addFile",
      "outputs": [],
      "payable": false,
      "stateMutability": "nonpayable",
      "type": "function"
    },
    {
      "constant": false,
      "inputs": [
        {
          "name": "_FileID",
          "type": "uint256"
        }
      ],
      "name": "createOrder",
      "outputs": [],
      "payable": true,
      "stateMutability": "payable",
      "type": "function"
    },
    {
      "constant": false,
      "inputs": [
        {
          "name": "_orderID",
          "type": "uint256"
        },
        {
          "name": "_approve",
          "type": "bool"
        }
      ],
      "name": "approveOrder",
      "outputs": [],
      "payable": false,
      "stateMutability": "nonpayable",
      "type": "function"
    },
    {
      "constant": true,
      "inputs": [
        {
          "name": "_fileID",
          "type": "uint256"
        }
      ],
      "name": "searchOrder",
      "outputs": [
        {
          "name": "",
          "type": "uint256"
        }
      ],
      "payable": false,
      "stateMutability": "view",
      "type": "function"
    },
    {
      "constant": false,
      "inputs": [
        {
          "name": "_orderID",
          "type": "uint256"
        }
      ],
      "name": "canselOrder",
      "outputs": [],
      "payable": false,
      "stateMutability": "nonpayable",
      "type": "function"
    },
    {
      "constant": false,
      "inputs": [],
      "name": "addDepositArbitrator",
      "outputs": [],
      "payable": true,
      "stateMutability": "payable",
      "type": "function"
    },
    {
      "constant": false,
      "inputs": [],
      "name": "becomeANarbitrator",
      "outputs": [],
      "payable": true,
      "stateMutability": "payable",
      "type": "function"
    },
    {
      "constant": false,
      "inputs": [
        {
          "name": "_orderID",
          "type": "uint256"
        },
        {
          "name": "_complaint",
          "type": "string"
        }
      ],
      "name": "createDisput",
      "outputs": [],
      "payable": false,
      "stateMutability": "nonpayable",
      "type": "function"
    },
    {
      "constant": false,
      "inputs": [
        {
          "name": "_orderID",
          "type": "uint256"
        },
        {
          "name": "_comments",
          "type": "string"
        }
      ],
      "name": "callArbitrator",
      "outputs": [],
      "payable": false,
      "stateMutability": "nonpayable",
      "type": "function"
    },
    {
      "constant": false,
      "inputs": [
        {
          "name": "_orderID",
          "type": "uint256"
        }
      ],
      "name": "setArbitr",
      "outputs": [
        {
          "name": "",
          "type": "uint256"
        }
      ],
      "payable": false,
      "stateMutability": "nonpayable",
      "type": "function"
    }
  ],
  "bytecode": "0x608060405234801561001057600080fd5b506119ac806100206000396000f3006080604052600436106100a35763ffffffff7c01000000000000000000000000000000000000000000000000000000006000350416630f894e9a81146100a85780631ca74ef9146100b2578063709a115c146100ba57806390e0a44e14610118578063c0b6213614610142578063c57666be1461015f578063ea34369614610177578063f5ed0c87146101d5578063f8ad8cd7146101ed578063ff29eb9b146101f8575b600080fd5b6100b06102a1565b005b6100b0610311565b3480156100c657600080fd5b5060408051602060046024803582810135601f81018590048502860185019096528585526100b095833595369560449491939091019190819084018382808284375094975061033b9650505050505050565b34801561012457600080fd5b506101306004356103a8565b60408051918252519081900360200190f35b34801561014e57600080fd5b506100b060043560243515156103bf565b34801561016b57600080fd5b5061013060043561088e565b34801561018357600080fd5b5060408051602060046024803582810135601f81018590048502860185019096528585526100b09583359536956044949193909101919081908401838280828437509497506109959650505050505050565b3480156101e157600080fd5b506100b0600435610b8f565b6100b0600435610d50565b34801561020457600080fd5b506040805160206004803580820135601f81018490048402850184019095528484526100b094369492936024939284019190819084018382808284375050604080516020601f60608a01358b0180359182018390048302840183018552818452989b8a359b838c01359b958601359a9199509750608090940195509193509182019181908401838280828437509497506112079650505050505050565b3360009081526006602052604090205460038054829081106102bf57fe5b600091825260209091206004600590920201015460ff1615156001146102e457600080fd5b346003828154811015156102f457fe5b600091825260209091206003600590920201018054909101905550565b34600a111561031f57600080fd5b61032933346115c8565b33600090815260066020526040902055565b6000828152600760205260409020600481015462010000900460ff161561036157600080fd5b805442620d2f009091011061037557600080fd5b600060068201558151610391906005830190602085019061183d565b50600401805462ff00001916620100001790555050565b600090815260076020526040812060060181905590565b60006103c96118bb565b600254600090851115610426576040805160e560020a62461bcd02815260206004820152601760248201527f676976656e20756e65786973746564206f726465724944000000000000000000604482015290519081900360640190fd5b600280548690811061043457fe5b6000918252602082206005909102018054825491955090811061045357fe5b60009182526020918290206040805160089390930290910180546002610100600183161581026000190190921604601f810186900490950284016101209081019093528301848152929390928492909184918401828280156104f65780601f106104cb576101008083540402835291602001916104f6565b820191906000526020600020905b8154815290600101906020018083116104d957829003601f168201915b50505091835250506001828101546020808401919091526002808501546040808601919091526003860154606086015260048601805482516000199682161561010002969096011692909204601f810184900484028501840190915280845260809094019390918301828280156105ae5780601f10610583576101008083540402835291602001916105ae565b820191906000526020600020905b81548152906001019060200180831161059157829003601f168201915b50505091835250506005820154602082015260068201546040820152600790910154600160a060020a0390811660609092019190915260e0820151600186015492945092501633148061061657508160e00151600160a060020a031633600160a060020a0316145b151561066c576040805160e560020a62461bcd02815260206004820152601d60248201527f77726f6e67206275796572206f722073656c6c65722061646472657373000000604482015290519081900360640190fd5b6001830154600160a060020a03163314156107225760018301805475ff000000000000000000000000000000000000000000191660a860020a861515810291909117918290556040805160ff60a060020a850481161515825292909304909116151560208301526060828201819052600e908301527f6e6f207472616e73616374696f6e0000000000000000000000000000000000006080830152516000805160206119618339815191529160a0908290030190a15b33600160a060020a03821614156107d35760018301805474ff0000000000000000000000000000000000000000191660a060020a861515810291909117918290556040805160ff92840483161515815260a860020a909304909116151560208301526060828201819052600e908301527f6e6f207472616e73616374696f6e0000000000000000000000000000000000006080830152516000805160206119618339815191529160a0908290030190a15b60018381015460a060020a900460ff161515148015610801575060018381015460a860020a900460ff161515145b156108875761080f85611702565b60018301546040805160ff60a060020a840481161515825260a860020a909304909216151560208301526060828201819052600b908301527f5472616e73616374696f6e0000000000000000000000000000000000000000006080830152516000805160206119618339815191529181900360a00190a15b5050505050565b60006108986118fe565b60005b60025481101561098e5760028054829081106108b357fe5b60009182526020918290206040805161010081810183526005909402909201805483526001810154600160a060020a0381169584019590955260ff60a060020a8604811615159284019290925260a860020a90940481161515606083015260028085015460808401526003850154808316151560a085015292949360c0860193049091169081111561094157fe5b600281111561094c57fe5b815260049190910154602091820152810151909250600160a060020a0316331461097557610986565b81518414156109865780925061098e565b60010161089b565b5050919050565b6000806002848154811015156109a757fe5b600091825260208220600590910201805482549194509081106109c657fe5b6000918252602090912060018401546008909202019150600160a060020a03163314806109ff57506007810154600160a060020a031633145b1515610a0a57600080fd5b60006003830154610100900460ff166002811115610a2457fe5b14610a2e57600080fd5b6003820180546001919061ff001916610100830217905550604080516101208101825242815233602080830191825282840187815284518083018652600080825260608601919091526080850181905260a0850181905260c085018190528551808401875281815260e08601526101008501819052898152600783529490942083518155915160018301805473ffffffffffffffffffffffffffffffffffffffff1916600160a060020a039092169190911790559251805192939192610afa926002850192019061183d565b5060608201518051610b1691600384019160209091019061183d565b50608082015160048201805460a085015160c08601511515620100000262ff0000199115156101000261ff001995151560ff199094169390931794909416919091171691909117905560e08201518051610b7a91600584019160209091019061183d565b50610100820151816006015590505050505050565b6000806000600284815481101515610ba357fe5b60009182526020909120600590910201600181015490935060a060020a900460ff16158015610bde5750600183015460a860020a900460ff16155b1515610be957600080fd5b600383015460ff1615610c46576040805160e560020a62461bcd02815260206004820181905260248201527f746865206f7264657220686173206265656e20616c7265616479207061796564604482015290519081900360640190fd5b60016003840154610100900460ff166002811115610c6057fe5b1415610c6b57600080fd5b6001830154600160a060020a03169150338214610c8757600080fd5b50600282015460038301805460ff19166001179055604051600160a060020a0383169082156108fc029083906000818181858888f19350505050158015610cd2573d6000803e3d6000fd5b5060018301546040805160ff60a060020a840481161515825260a860020a909304909216151560208301526060828201819052600b908301527f5472616e73616374696f6e0000000000000000000000000000000000000000006080830152516000805160206119618339815191529181900360a00190a150505050565b610d586118bb565b60008083815481101515610d6857fe5b60009182526020918290206040805160089390930290910180546002610100600183161581026000190190921604601f81018690049095028401610120908101909352830184815292939092849290918491840182828015610e0b5780601f10610de057610100808354040283529160200191610e0b565b820191906000526020600020905b815481529060010190602001808311610dee57829003601f168201915b50505091835250506001828101546020808401919091526002808501546040808601919091526003860154606086015260048601805482516000199682161561010002969096011692909204601f81018490048402850184019091528084526080909401939091830182828015610ec35780601f10610e9857610100808354040283529160200191610ec3565b820191906000526020600020905b815481529060010190602001808311610ea657829003601f168201915b50505091835250506005820154602082015260068201546040820152600790910154600160a060020a0316606090910152600054909250831115610f77576040805160e560020a62461bcd02815260206004820152603b60248201527fd0a4d0b0d0b9d0bb20d18120d183d0bad0b0d0b7d0b0d0bdd0bdd18bd0bc204960448201527f4420d0bdd0b520d181d183d189d0b5d181d182d0b2d183d0b5d1820000000000606482015290519081900360840190fd5b6060820151341015610ff9576040805160e560020a62461bcd02815260206004820152602c60248201527f676976656e206d6f6e65792073686f756c64206265206772656174657220746860448201527f616e207468652070726963650000000000000000000000000000000000000000606482015290519081900360840190fd5b604080516101008082018352858252336020830190815260009383018481526060808501868152908801516080860190815260a0860187815260c0870188815260e088018990526002805460018181018084559b8390528a5160059092027f405787fa12a823e0f2b7631cc41b3ba8828b3321ca811111fa75cd3aa3bb5ace810192835598517f405787fa12a823e0f2b7631cc41b3ba8828b3321ca811111fa75cd3aa3bb5acf8a0180549951985173ffffffffffffffffffffffffffffffffffffffff19909a16600160a060020a039092169190911774ff0000000000000000000000000000000000000000191660a060020a981515989098029790971775ff000000000000000000000000000000000000000000191660a860020a981515989098029790971790955592517f405787fa12a823e0f2b7631cc41b3ba8828b3321ca811111fa75cd3aa3bb5ad087015590517f405787fa12a823e0f2b7631cc41b3ba8828b3321ca811111fa75cd3aa3bb5ad1909501805460ff19169515159590951780865590519397969592949261ff001990911691849081111561119c57fe5b021790555060e09190910151600490910155036000819052600560209081526060808501516040805188815293840185905283810191909152519293507f8dfeb0267d301a3c68b6b58986366f04dfb03f5802faef1a6419f1cbc1109bba92918290030190a1505050565b33600090815260016020526040812054906060818084151561127a5760088054600181018083556000929092527ff3f7a9fe364faab93b216da50a3214154f22a0a2b415b23a84c8169e8b636ee301805473ffffffffffffffffffffffffffffffffffffffff1916331790559350611315565b33600090815260016020908152604091829020805483518184028101840190945280845290918301828280156112cf57602002820191906000526020600020905b8154815260200190600101908083116112bb575b505050505092508260008151811015156112e557fe5b90602001906020020151915060008281548110151561130057fe5b90600052602060002090600802016006015493505b506000805460408051610100810182528c815260208082018d90529181018b9052606081018a90526080810189905260a0810183905260c081018790523360e082015260018301808555938052805180519394939192600886027f290decd9548b62a8d60345a988386fc84ba6bc95484008f6362f93160ef3e563019261139f928492019061183d565b5060208281015160018301556040830151600283015560608301516003830155608083015180516113d6926004850192019061183d565b5060a0820151816005015560c0820151816006015560e08201518160070160006101000a815481600160a060020a030219169083600160a060020a031602179055505050506001600033600160a060020a0316600160a060020a031681526020019081526020016000208190806001815401808255809150509060018203906000526020600020016000909192909190915055507fa7d75d4f1f397d376eb2e26a8e05f28bb16bf9d62d56ecd14b2b44159032e4358a8a8a8a8a868a336040518080602001896000191660001916815260200188600019166000191681526020018781526020018060200186815260200185815260200184600160a060020a0316600160a060020a0316815260200183810383528b818151815260200191508051906020019080838360005b8381101561151a578181015183820152602001611502565b50505050905090810190601f1680156115475780820380516001836020036101000a031916815260200191505b50838103825287518152875160209182019189019080838360005b8381101561157a578181015183820152602001611562565b50505050905090810190601f1680156115a75780820380516001836020036101000a031916815260200191505b509a505050505050505050505060405180910390a150505050505050505050565b6040805160a081018252600160a060020a0393841681526000602082018181529282018181526060830194855260016080840181815260038054928301815590935292517fc2575a0e9e593c00f959f8c92f12db2869c3395a3b0502d05e2516446f71f85b60058502908101805473ffffffffffffffffffffffffffffffffffffffff1916929098169190911790965592517fc2575a0e9e593c00f959f8c92f12db2869c3395a3b0502d05e2516446f71f85c86015591517fc2575a0e9e593c00f959f8c92f12db2869c3395a3b0502d05e2516446f71f85d85015591517fc2575a0e9e593c00f959f8c92f12db2869c3395a3b0502d05e2516446f71f85e840155517fc2575a0e9e593c00f959f8c92f12db2869c3395a3b0502d05e2516446f71f85f909201805460ff19169215159290921790915590565b600080600060028481548110151561171657fe5b60009182526020909120600590910201600381015490935060ff1615611786576040805160e560020a62461bcd02815260206004820181905260248201527f746865206f7264657220686173206265656e20616c7265616479207061796564604482015290519081900360640190fd5b600283015483546000805492945091811061179d57fe5b6000918252602090912060089091020160070154600184810154600160a060020a03909216925060a060020a90910460ff1615151480156117ed575060018381015460a860020a900460ff161515145b156118375760038301805460ff19166001179055604051600160a060020a0382169083156108fc029084906000818181858888f19350505050158015610887573d6000803e3d6000fd5b50505050565b828054600181600116156101000203166002900490600052602060002090601f016020900481019282601f1061187e57805160ff19168380011785556118ab565b828001600101855582156118ab579182015b828111156118ab578251825591602001919060010190611890565b506118b7929150611943565b5090565b60408051610100810182526060808252600060208301819052928201839052808201839052608082015260a0810182905260c0810182905260e081019190915290565b6040805161010081018252600080825260208201819052918101829052606081018290526080810182905260a081018290529060c08201908152602001600081525090565b61195d91905b808211156118b75760008155600101611949565b905600947e2832d9f0ef35e50ea91840d54dda1d0f87fdc4daeb1894bbb77e621ed139a165627a7a723058202fe5c08432ccabc9cf8bf28978e8e2b324a8672dbf6f42c11c7ab57e96e9f6820029",
  "source": "pragma solidity ^0.4.0;\n//pragma experimental ABIEncoderV2;\n\ncontract MarketPlace {\n    constructor() public {}\n\n    struct sFile {\n        string Name;\n        bytes32 Hash;\n        bytes32 SwarmHash;\n        uint Price;\n        string Description;\n        uint FileID;\n        uint SellerID;\n        address Owner;\n\n    }\n\n    enum statusDisput {empty,exist,close}\n\n    struct oneOrder {// планируется для отслеживания подтверждения, что все получили чего хотели.\n        //uint OrderID;\n        uint FileID;\n        address BayerAddress;\n        bool OwnerApprove; // согласие завершение сделки со стороны владельца ресурса\n        bool BayerApprove; // согласие завершение сделки со стороны покупателя\n        uint FixPrise; // стоимость для фиксирования цены\n        bool IsPayed;\n        statusDisput ExistDisput;\n        uint DisputID;// id спора\n\n        // берем из dbFiles[oneOrder.FileID]\n        //        string Name;\n        //        bytes32 Hash;\n        //        bytes32 SwarmHash;\n        //        uint Price;\n        //        string Description;\n\n    }\n\n    struct arbitrator {\n        address arbitratorAddress;\n        // uint ID;\n        uint DisputCount;\n        uint Rating;\n        uint Deposit; ///всю инфу хранитьтут мапинг по адресу на все данные арбитра\n        bool Exist;\n    }\n\n    struct disput {//todo: структура споров в массиве и id спора записывать продавцу\n        uint DateCreateDisput;\n        address WhoCreateDisput;\n        string Complaint; //суть притензии\n        string AnswerComplaint; // ответочка\n        bool ConsentOwner;\n        bool ConsentBayer;\n        bool CallArbitr;\n        string arbirtatorComment;\n        uint arbitr1;// правильно ли держать в структуре данные которые нужны только для обострения споров?\n        //address arbitr2;// fixme: надо вынести инфу про арбитров.\n        //address arbirt3;\n    }\n    // fixme насморк замучил немогу, только и бегаю до ванны и обратно 5 утра поеду в аптеку ((((\n    //mapping(address=>uint[]) arbitrationDisputs; // не уверен что эир мне надо\n\n    event NewFile(string _name, bytes32 _Hash, bytes32 _SwarmHash, uint _Price,\n        string _Description, uint _FileID, uint _SellerID, address _owner);\n\n    //  mapping(address => sFile[]) dbFile;\n    sFile[] dbFiles;\n    mapping(address => uint[]) sellerFileIDs;\n    //mapping(uint => arbitrator[]) arbitratorDB; //ID арбитра на структуру с всеми данными по ниму\n    // address[] arbitratorID; //массив адресов арбитров номер - адрес\n    // mapping(address => uint) deposit;\n\n    oneOrder[] allOrders;\n    arbitrator[] allArbitrator; //арбитры\n    mapping(uint => address) ownerOrdersID;\n    mapping(uint => address) bayersOrdersID;\n    mapping(address => uint) arbitratorID;\n    mapping(uint => disput) allDisput;\n\n\n    //disput[] allDisput; //сюда будем заносить споры fixme: переделать на mapping uint - > disput ( где uint orderID )\n    //todo (возможно создать структуру покупателя с занесением информации о спорах)\n\n    //mapping //идея заключается в сохранении номерСпора=>адбитры\n\n\n    address[] allVendorsAtTheCurrentMoment; // для проверки: есть ли такой продавец\n    // todo при создании файла нужно внести депозит\n    function addFile(string _name, bytes32 _Hash, bytes32 _SwarmHash, uint _Price, string _Description) public {\n        uint _fileCount = sellerFileIDs[msg.sender].length;\n        uint _SellerID;\n        if (_fileCount == 0) {\n            _SellerID = allVendorsAtTheCurrentMoment.push(msg.sender);\n        } else {\n            uint[] memory sellerFilesIDs = sellerFileIDs[msg.sender];\n            uint sellerFirstFileID = sellerFilesIDs[0];\n            _SellerID = dbFiles[sellerFirstFileID].SellerID;\n        }\n\n        uint _FileID = dbFiles.length;\n        dbFiles.push(sFile(_name, _Hash, _SwarmHash, _Price, _Description, _FileID, _SellerID, msg.sender));\n        sellerFileIDs[msg.sender].push(_FileID);\n\n        emit NewFile(_name, _Hash, _SwarmHash, _Price, _Description, _FileID, _SellerID, msg.sender);\n    }\n\n    //    function list() public view returns(sFile[]) {\n    //        sFile[] memory _allfiles;\n    //        for (uint i = 0; i < dbFiles.length; i++) {\n    //            _allfiles.push(dbFiles[i]);\n    //        }\n    //        return _allfiles;\n    //\n    //    }\n\n\n    event EventCreateOrder(uint _FileID, uint _orderID, uint _price);\n\n    function createOrder(uint _FileID) public payable {\n        sFile memory BayFile = dbFiles[_FileID];\n        require(dbFiles.length >= _FileID, \"Файл с указанным ID не существует\");\n        require(BayFile.Price <= msg.value, \"given money should be greater than the price\");\n        uint _orderID = allOrders.push(oneOrder(_FileID, msg.sender, false, false, BayFile.Price, false, statusDisput.empty , 0)) - 1;\n        //0- статус спора; 0-ID спора\n        ownerOrdersID[_orderID];\n        bayersOrdersID[_orderID];\n        emit EventCreateOrder(_FileID, _orderID, BayFile.Price);\n    }\n\n    event eventApproveOrder(bool _owner, bool bayer, string statusTransaktion);\n\n    function approveOrder(uint _orderID, bool _approve) public {\n        require(allOrders.length >= _orderID, \"given unexisted orderID\");\n        //todo проверка открытого спора\n\n        oneOrder storage _order = allOrders[_orderID];\n        sFile memory _fileInfo = dbFiles[_order.FileID];\n        address _owner = _fileInfo.Owner;\n        require(msg.sender == _order.BayerAddress || msg.sender == _fileInfo.Owner, \"wrong buyer or seller address\");\n\n        if (msg.sender == _order.BayerAddress) {\n            _order.BayerApprove = _approve;\n            emit eventApproveOrder(_order.OwnerApprove, _order.BayerApprove, \"no transaction\");\n        }\n        if (msg.sender == _owner) {\n            _order.OwnerApprove = _approve;\n            emit eventApproveOrder(_order.OwnerApprove, _order.BayerApprove, \"no transaction\");\n        }\n        // если она true вызвать closeOrder\n        if (_order.OwnerApprove == true && _order.BayerApprove == true) {\n            closeOrder(_orderID);\n            emit eventApproveOrder(_order.OwnerApprove, _order.BayerApprove, \"Transaction\");\n        }\n\n    }\n\n    function closeOrder(uint _orderID) private {\n        oneOrder storage _order = allOrders[_orderID];\n        require(_order.IsPayed == false, \"the order has been already payed\");\n\n        uint amount = _order.FixPrise;\n        address _owner = dbFiles[_order.FileID].Owner;\n\n        if (_order.OwnerApprove == true && _order.BayerApprove == true) {\n            _order.IsPayed = true;\n            _owner.transfer(amount);\n        }\n    }\n\n    function searchOrder(uint _fileID) view public returns (uint) {\n        oneOrder memory _order;\n        for (uint i = 0; i < allOrders.length; i++) {\n            _order = allOrders[i];\n\n            if (msg.sender != _order.BayerAddress) {\n                continue;\n            }\n\n            if (_order.FileID == _fileID) {\n                return i;\n            }\n            // кажись так цикл не остановить ((\n        }\n    }\n\n    function canselOrder(uint _orderID) public {//todo создать функцию отмена заказа\n        oneOrder storage _order = allOrders[_orderID];\n        require(_order.OwnerApprove == false && _order.BayerApprove == false);\n        require(_order.IsPayed == false, \"the order has been already payed\");\n        require(_order.ExistDisput != statusDisput.exist);\n        address _bayerAddress = _order.BayerAddress;\n        require(_bayerAddress == msg.sender);\n        uint amount = _order.FixPrise;\n        _order.IsPayed = true;\n        _bayerAddress.transfer(amount);\n        emit eventApproveOrder(_order.OwnerApprove, _order.BayerApprove, \"Transaction\");\n\n    }\n\n    uint constant minArbitorDeposit = 10;\n\n    function addDepositArbitrator() public payable {\n        uint _ID1 = arbitratorID[msg.sender];\n        require(allArbitrator[_ID1].Exist == true);\n        allArbitrator[_ID1].Deposit += msg.value;\n    }\n\n    function becomeANarbitrator() public payable {\n        require(minArbitorDeposit <= msg.value);\n        arbitratorID[msg.sender] = newArbitrator(msg.sender, msg.value);\n    }\n\n    function newArbitrator(address arbitr, uint _deposit) private returns (uint) {\n        return allArbitrator.push(arbitrator({\n            arbitratorAddress : arbitr,\n            Deposit : _deposit,\n            DisputCount : 0,\n            Rating : 0,\n            Exist : true\n            })) - 1;\n    }\n\n    event createDisputEvent(uint _orderID, string _complaint, address _owner, address _bayer);\n\n    function createDisput(uint _orderID, string _complaint) public {\n        oneOrder storage _order = allOrders[_orderID];\n        sFile storage _fileInfo = dbFiles[_order.FileID];\n        require(_order.BayerAddress == msg.sender || _fileInfo.Owner == msg.sender);\n        require(_order.ExistDisput == statusDisput.empty);\n        _order.ExistDisput = statusDisput.exist;\n        allDisput[_orderID] = disput({\n            DateCreateDisput: now,\n            WhoCreateDisput: msg.sender,\n            Complaint: _complaint,\n            AnswerComplaint: \"\",\n            ConsentOwner: false,\n            ConsentBayer: false,\n            CallArbitr: false,\n            arbirtatorComment:\"\",\n            arbitr1: 0 //fixme: надо настроить на пустой параметр или адрес контракта или владельца ресурса.\n            });\n\n//        _order.DisputID = allDisput.push(disput({\n//            DateCreateDisput: now,\n//            WhoCreateDisput: msg.sender,\n//            Complaint: _complaint,\n//            AnswerComplaint: \"\",\n//            ConsentOwner: false,\n//            ConsentBayer: false,\n//            CallArbitr: false\n//            })) -1;\n        //todo обращаемся к базе арбитров и назначаем 3х красавцев\n    }\n\n    function callArbitrator (uint _orderID, string _comments) public {\n        disput storage _disput = allDisput[_orderID];\n        require(_disput.CallArbitr == false);\n        require(_disput.DateCreateDisput + 10 days < now);\n        _disput.arbitr1 = 0;\n        _disput.arbirtatorComment = _comments;\n        _disput.CallArbitr = true;\n\n    }\n    function setArbitr (uint _orderID) public returns(uint){\n        uint _who; //fixme переделать на вызов функции рандомного выбора арбитров\n        disput storage _disput = allDisput[_orderID];\n        _disput.arbitr1 = _who; //какой-то бред нуден или номер арбитра из массива или его адрес и мап с индексами\n    }\n\n\n}",
  "sourcePath": "/Users/victor/Documents/Blockchain/week7/marketplace/contracts/MarketPlace.sol",
  "compiler": {
    "name": "solc",
    "version": "0.4.24+commit.e67f0147.Emscripten.clang"
  },
  "schemaVersion": "2.0.1",
  "updatedAt": "2018-11-11T08:48:43.323Z"
}