{
  "contractName": "MarketPlace",
  "abi": [
    {
      "inputs": [],
      "payable": false,
      "stateMutability": "nonpayable",
      "type": "constructor"
    },
    {
      "anonymous": false,
      "inputs": [
        {
          "indexed": false,
          "name": "_name",
          "type": "string"
        },
        {
          "indexed": false,
          "name": "_Hash",
          "type": "bytes32"
        },
        {
          "indexed": false,
          "name": "_SwarmHash",
          "type": "bytes32"
        },
        {
          "indexed": false,
          "name": "_Price",
          "type": "uint256"
        },
        {
          "indexed": false,
          "name": "_Description",
          "type": "string"
        },
        {
          "indexed": false,
          "name": "_FileID",
          "type": "uint256"
        },
        {
          "indexed": false,
          "name": "_SellerID",
          "type": "uint256"
        },
        {
          "indexed": false,
          "name": "_owner",
          "type": "address"
        }
      ],
      "name": "NewFile",
      "type": "event"
    },
    {
      "anonymous": false,
      "inputs": [
        {
          "indexed": false,
          "name": "_FileID",
          "type": "uint256"
        },
        {
          "indexed": false,
          "name": "_orderID",
          "type": "uint256"
        },
        {
          "indexed": false,
          "name": "_price",
          "type": "uint256"
        }
      ],
      "name": "EventCreateOrder",
      "type": "event"
    },
    {
      "anonymous": false,
      "inputs": [
        {
          "indexed": false,
          "name": "_owner",
          "type": "bool"
        },
        {
          "indexed": false,
          "name": "bayer",
          "type": "bool"
        },
        {
          "indexed": false,
          "name": "statusTransaktion",
          "type": "string"
        }
      ],
      "name": "eventApproveOrder",
      "type": "event"
    },
    {
      "constant": false,
      "inputs": [
        {
          "name": "_name",
          "type": "string"
        },
        {
          "name": "_Hash",
          "type": "bytes32"
        },
        {
          "name": "_SwarmHash",
          "type": "bytes32"
        },
        {
          "name": "_Price",
          "type": "uint256"
        },
        {
          "name": "_Description",
          "type": "string"
        }
      ],
      "name": "addFile",
      "outputs": [],
      "payable": false,
      "stateMutability": "nonpayable",
      "type": "function"
    },
    {
      "constant": false,
      "inputs": [
        {
          "name": "_FileID",
          "type": "uint256"
        }
      ],
      "name": "createOrder",
      "outputs": [],
      "payable": true,
      "stateMutability": "payable",
      "type": "function"
    },
    {
      "constant": false,
      "inputs": [
        {
          "name": "_orderID",
          "type": "uint256"
        },
        {
          "name": "_approve",
          "type": "bool"
        }
      ],
      "name": "approveOrder",
      "outputs": [],
      "payable": false,
      "stateMutability": "nonpayable",
      "type": "function"
    },
    {
      "constant": true,
      "inputs": [
        {
          "name": "_fileID",
          "type": "uint256"
        }
      ],
      "name": "searchOrder",
      "outputs": [
        {
          "name": "",
          "type": "uint256"
        }
      ],
      "payable": false,
      "stateMutability": "view",
      "type": "function"
    },
    {
      "constant": false,
      "inputs": [
        {
          "name": "_orderID",
          "type": "uint256"
        }
      ],
      "name": "canselOrder",
      "outputs": [],
      "payable": false,
      "stateMutability": "nonpayable",
      "type": "function"
    }
  ],
  "bytecode": "0x608060405234801561001057600080fd5b50611366806100206000396000f30060806040526004361061006c5763ffffffff7c0100000000000000000000000000000000000000000000000000000000600035041663c0b621368114610071578063c57666be14610090578063f5ed0c87146100ba578063f8ad8cd7146100d2578063ff29eb9b146100dd575b600080fd5b34801561007d57600080fd5b5061008e6004356024351515610186565b005b34801561009c57600080fd5b506100a860043561068b565b60408051918252519081900360200190f35b3480156100c657600080fd5b5061008e600435610759565b61008e600435610889565b3480156100e957600080fd5b506040805160206004803580820135601f810184900484028501840190955284845261008e94369492936024939284019190819084018382808284375050604080516020601f60608a01358b0180359182018390048302840183018552818452989b8a359b838c01359b958601359a919950975060809094019550919350918201918190840183828082843750949750610d249650505050505050565b6000610190611220565b6002546000908511156101ed576040805160e560020a62461bcd02815260206004820152601760248201527f676976656e20756e65786973746564206f726465724944000000000000000000604482015290519081900360640190fd5b60028054869081106101fb57fe5b6000918252602082206005909102018054825491955090811061021a57fe5b60009182526020918290206040805160089390930290910180546002610100600183161581026000190190921604601f810186900490950284016101209081019093528301848152929390928492909184918401828280156102bd5780601f10610292576101008083540402835291602001916102bd565b820191906000526020600020905b8154815290600101906020018083116102a057829003601f168201915b50505091835250506001828101546020808401919091526002808501546040808601919091526003860154606086015260048601805482516000199682161561010002969096011692909204601f810184900484028501840190915280845260809094019390918301828280156103755780601f1061034a57610100808354040283529160200191610375565b820191906000526020600020905b81548152906001019060200180831161035857829003601f168201915b50505091835250506005820154602082015260068201546040820152600790910154600160a060020a0390811660609092019190915260e082015160018601549294509250163314806103dd57508160e00151600160a060020a031633600160a060020a0316145b1515610433576040805160e560020a62461bcd02815260206004820152601d60248201527f77726f6e67206275796572206f722073656c6c65722061646472657373000000604482015290519081900360640190fd5b6001830154600160a060020a03163314156104fb5760018301805475ff000000000000000000000000000000000000000000191660a860020a861515810291909117918290556040805160ff60a060020a850481161515825292909304909116151560208301526060828201819052600e908301527f6e6f207472616e73616374696f6e0000000000000000000000000000000000006080830152517f947e2832d9f0ef35e50ea91840d54dda1d0f87fdc4daeb1894bbb77e621ed1399160a0908290030190a15b33600160a060020a03821614156105be5760018301805474ff0000000000000000000000000000000000000000191660a060020a861515810291909117918290556040805160ff92840483161515815260a860020a909304909116151560208301526060828201819052600e908301527f6e6f207472616e73616374696f6e0000000000000000000000000000000000006080830152517f947e2832d9f0ef35e50ea91840d54dda1d0f87fdc4daeb1894bbb77e621ed1399160a0908290030190a15b60018381015460a060020a900460ff1615151480156105ec575060018381015460a860020a900460ff161515145b15610684576105fa856110e5565b60018301546040805160ff60a060020a840481161515825260a860020a909304909216151560208301526060828201819052600b908301527f5472616e73616374696f6e0000000000000000000000000000000000000000006080830152517f947e2832d9f0ef35e50ea91840d54dda1d0f87fdc4daeb1894bbb77e621ed1399181900360a00190a15b5050505050565b6000610695611263565b60005b6002548110156107525760028054829081106106b057fe5b60009182526020918290206040805160e0810182526005909302909101805483526001810154600160a060020a03811694840185905260ff60a060020a8204811615159385019390935260a860020a9004821615156060840152600281015460808401526003810154909116151560a08301526004015460c0820152925033146107395761074a565b815184141561074a57809250610752565b600101610698565b5050919050565b600080600060028481548110151561076d57fe5b6000918252602090912060016005909202018181015490945060ff60a060020a909104161515148015906107b1575060018381015460a860020a900460ff16151514155b15156107bc57600080fd5b600383015460ff1615610819576040805160e560020a62461bcd02815260206004820181905260248201527f746865206f7264657220686173206265656e20616c7265616479207061796564604482015290519081900360640190fd5b6001830154600160a060020a0316331461083257600080fd5b5050600180820154600283015460038401805460ff1916909317909255604051600160a060020a039091169190829082156108fc029083906000818181858888f19350505050158015610684573d6000803e3d6000fd5b610891611220565b600080838154811015156108a157fe5b60009182526020918290206040805160089390930290910180546002610100600183161581026000190190921604601f810186900490950284016101209081019093528301848152929390928492909184918401828280156109445780601f1061091957610100808354040283529160200191610944565b820191906000526020600020905b81548152906001019060200180831161092757829003601f168201915b50505091835250506001828101546020808401919091526002808501546040808601919091526003860154606086015260048601805482516000199682161561010002969096011692909204601f810184900484028501840190915280845260809094019390918301828280156109fc5780601f106109d1576101008083540402835291602001916109fc565b820191906000526020600020905b8154815290600101906020018083116109df57829003601f168201915b50505091835250506005820154602082015260068201546040820152600790910154600160a060020a0316606090910152600054909250831115610ab0576040805160e560020a62461bcd02815260206004820152603b60248201527fd0a4d0b0d0b9d0bb20d18120d183d0bad0b0d0b7d0b0d0bdd0bdd18bd0bc204960448201527f4420d0bdd0b520d181d183d189d0b5d181d182d0b2d183d0b5d1820000000000606482015290519081900360840190fd5b6060820151341015610b32576040805160e560020a62461bcd02815260206004820152602c60248201527f676976656e206d6f6e65792073686f756c64206265206772656174657220746860448201527f616e207468652070726963650000000000000000000000000000000000000000606482015290519081900360840190fd5b506040805160e0810182528381523360208083019182526000838501818152606080860183815288820180516080890190815260a0890186815260c08a01878152600280546001810182559089529a5160058c027f405787fa12a823e0f2b7631cc41b3ba8828b3321ca811111fa75cd3aa3bb5ace81019190915599517f405787fa12a823e0f2b7631cc41b3ba8828b3321ca811111fa75cd3aa3bb5acf8b01805498519651151560a860020a0275ff0000000000000000000000000000000000000000001997151560a060020a0274ff000000000000000000000000000000000000000019600160a060020a039490941673ffffffffffffffffffffffffffffffffffffffff19909b169a909a1792909216989098179590951694909417909555517f405787fa12a823e0f2b7631cc41b3ba8828b3321ca811111fa75cd3aa3bb5ad088015592517f405787fa12a823e0f2b7631cc41b3ba8828b3321ca811111fa75cd3aa3bb5ad18701805491151560ff19909216919091179055517f405787fa12a823e0f2b7631cc41b3ba8828b3321ca811111fa75cd3aa3bb5ad290950194909455908490526004825251845187815291820184905281850152925191927f8dfeb0267d301a3c68b6b58986366f04dfb03f5802faef1a6419f1cbc1109bba929081900390910190a1505050565b336000908152600160205260408120549060608180841515610d975760058054600181018083556000929092527f036b6384b5eca791c62761152d0c79bb0604c104a5fb6f4eb0703f3154bb3db001805473ffffffffffffffffffffffffffffffffffffffff1916331790559350610e32565b3360009081526001602090815260409182902080548351818402810184019094528084529091830182828015610dec57602002820191906000526020600020905b815481526020019060010190808311610dd8575b50505050509250826000815181101515610e0257fe5b906020019060200201519150600082815481101515610e1d57fe5b90600052602060002090600802016006015493505b506000805460408051610100810182528c815260208082018d90529181018b9052606081018a90526080810189905260a0810183905260c081018790523360e082015260018301808555938052805180519394939192600886027f290decd9548b62a8d60345a988386fc84ba6bc95484008f6362f93160ef3e5630192610ebc928492019061129f565b506020828101516001830155604083015160028301556060830151600383015560808301518051610ef3926004850192019061129f565b5060a0820151816005015560c0820151816006015560e08201518160070160006101000a815481600160a060020a030219169083600160a060020a031602179055505050506001600033600160a060020a0316600160a060020a031681526020019081526020016000208190806001815401808255809150509060018203906000526020600020016000909192909190915055507fa7d75d4f1f397d376eb2e26a8e05f28bb16bf9d62d56ecd14b2b44159032e4358a8a8a8a8a868a336040518080602001896000191660001916815260200188600019166000191681526020018781526020018060200186815260200185815260200184600160a060020a0316600160a060020a0316815260200183810383528b818151815260200191508051906020019080838360005b8381101561103757818101518382015260200161101f565b50505050905090810190601f1680156110645780820380516001836020036101000a031916815260200191505b50838103825287518152875160209182019189019080838360005b8381101561109757818101518382015260200161107f565b50505050905090810190601f1680156110c45780820380516001836020036101000a031916815260200191505b509a505050505050505050505060405180910390a150505050505050505050565b60008060006002848154811015156110f957fe5b60009182526020909120600590910201600381015490935060ff1615611169576040805160e560020a62461bcd02815260206004820181905260248201527f746865206f7264657220686173206265656e20616c7265616479207061796564604482015290519081900360640190fd5b600283015483546000805492945091811061118057fe5b6000918252602090912060089091020160070154600184810154600160a060020a03909216925060a060020a90910460ff1615151480156111d0575060018381015460a860020a900460ff161515145b1561121a5760038301805460ff19166001179055604051600160a060020a0382169083156108fc029084906000818181858888f19350505050158015610684573d6000803e3d6000fd5b50505050565b60408051610100810182526060808252600060208301819052928201839052808201839052608082015260a0810182905260c0810182905260e081019190915290565b6040805160e081018252600080825260208201819052918101829052606081018290526080810182905260a0810182905260c081019190915290565b828054600181600116156101000203166002900490600052602060002090601f016020900481019282601f106112e057805160ff191683800117855561130d565b8280016001018555821561130d579182015b8281111561130d5782518255916020019190600101906112f2565b5061131992915061131d565b5090565b61133791905b808211156113195760008155600101611323565b905600a165627a7a7230582046b59cb3b61be9891fcb54ad3013bb4362906f4a11c1078d49ff4dfdd69b612f0029",
  "source": "pragma solidity ^0.4.0;\n//pragma experimental ABIEncoderV2;\n\ncontract MarketPlace {\n    constructor() public {}\n\n    struct sFile {\n        string Name;\n        bytes32 Hash;\n        bytes32 SwarmHash;\n        uint Price;\n        string Description;\n        uint FileID;\n        uint SellerID;\n        address Owner;\n\n    }\n\n    struct oneOrder { // планируется для отслеживания подтверждения, что все получили чего хотели.\n        //uint OrderID;\n        uint FileID;\n        address BayerAddress;\n        bool OwnerApprove; // согласие завершение сделки со стороны владельца ресурса\n        bool BayerApprove; // согласие завершение сделки со стороны покупателя\n        uint FixPrise; // стоимость для фиксирования цены\n        bool IsPayed;\n        uint ExistDisput; //todo добавить поле открытого спора\n\n\n        // берем из dbFiles[oneOrder.FileID]\n        //        string Name;\n        //        bytes32 Hash;\n        //        bytes32 SwarmHash;\n        //        uint Price;\n        //        string Description;\n        //\n    }\n\n    event NewFile(string _name, bytes32 _Hash, bytes32 _SwarmHash, uint _Price,\n            string _Description, uint _FileID, uint _SellerID, address _owner);\n\n    //  mapping(address => sFile[]) dbFile;\n    sFile[] dbFiles;\n    mapping(address => uint[]) sellerFileIDs;\n   // mapping(address => uint) deposit;\n\n    oneOrder[] allOrders;\n    mapping(uint => address) ownerOrdersID;\n    mapping(uint => address) bayersOrdersID;\n\n    //todo структура споров в массиве и id спора записывать продавцу\n    //массив для споров\n\n\n    //todo (возможно создать структуру покупателя с занесением информации о спорах)\n\n\n    address[] allVendorsAtTheCurrentMoment; // для проверки: есть ли такой продавец\n\n    function addFile(string _name, bytes32 _Hash, bytes32 _SwarmHash, uint _Price, string _Description) public {\n        uint _fileCount = sellerFileIDs[msg.sender].length;\n        uint _SellerID;\n        if (_fileCount == 0) {\n            _SellerID = allVendorsAtTheCurrentMoment.push(msg.sender);\n        } else {\n            uint[] memory sellerFilesIDs = sellerFileIDs[msg.sender];\n            uint sellerFirstFileID = sellerFilesIDs[0];\n            _SellerID = dbFiles[sellerFirstFileID].SellerID;\n        }\n\n        uint _FileID = dbFiles.length;\n        dbFiles.push(sFile(_name, _Hash, _SwarmHash, _Price, _Description, _FileID, _SellerID, msg.sender));\n        sellerFileIDs[msg.sender].push(_FileID);\n\n        emit NewFile(_name, _Hash, _SwarmHash, _Price, _Description, _FileID, _SellerID, msg.sender);\n    }\n\n//    function list() public view returns(sFile[]) {\n//        sFile[] memory _allfiles;\n//        for (uint i = 0; i < dbFiles.length; i++) {\n//            _allfiles.push(dbFiles[i]);\n//        }\n//        return _allfiles;\n//\n//    }\n\n    mapping(address => uint) deposits;\n\n    event EventCreateOrder(uint _FileID, uint _orderID, uint _price);\n\n    function createOrder(uint _FileID) public payable {\n        sFile memory BayFile = dbFiles[_FileID];\n        require(dbFiles.length >= _FileID, \"Файл с указанным ID не существует\");\n        require(BayFile.Price <= msg.value, \"given money should be greater than the price\");\n//      deposits[msg.sender] += msg.value;\n        uint _orderID = allOrders.push(oneOrder(_FileID, msg.sender, false, false, BayFile.Price, false, 0))-1;\n        ownerOrdersID[_orderID];\n        bayersOrdersID[_orderID];\n        emit EventCreateOrder(_FileID, _orderID, BayFile.Price);\n    }\n\n    event eventApproveOrder(bool _owner, bool bayer, string statusTransaktion);\n\n    function approveOrder(uint _orderID, bool _approve) public {\n        require(allOrders.length >= _orderID, \"given unexisted orderID\");\n        //todo проверка открытого спора\n\n        oneOrder storage _order = allOrders[_orderID];\n        sFile memory _fileInfo = dbFiles[_order.FileID];\n        address _owner = _fileInfo.Owner;\n        require(msg.sender == _order.BayerAddress || msg.sender == _fileInfo.Owner, \"wrong buyer or seller address\");\n\n        if (msg.sender == _order.BayerAddress) {\n            _order.BayerApprove = _approve;\n            emit eventApproveOrder(_order.OwnerApprove, _order.BayerApprove, \"no transaction\");\n        }\n        if (msg.sender == _owner) {\n            _order.OwnerApprove = _approve;\n            emit eventApproveOrder(_order.OwnerApprove, _order.BayerApprove, \"no transaction\");\n        }\n        // если она true вызвать closeOrder\n        if(_order.OwnerApprove == true && _order.BayerApprove == true){\n            closeOrder(_orderID);\n            emit eventApproveOrder(_order.OwnerApprove, _order.BayerApprove, \"Transaction\");\n        }\n\n    }\n\n    function closeOrder(uint _orderID) private {\n        oneOrder storage _order = allOrders[_orderID];\n        require(_order.IsPayed == false, \"the order has been already payed\");\n\n        uint amount = _order.FixPrise;\n        address _owner = dbFiles[_order.FileID].Owner;\n\n        if (_order.OwnerApprove == true && _order.BayerApprove == true) {\n            _order.IsPayed = true;\n            _owner.transfer(amount);\n        }\n    }\n\n    function searchOrder(uint _fileID) view public returns(uint) {\n        oneOrder memory _order;\n        for (uint i=0; i < allOrders.length; i++) {\n            _order = allOrders[i];\n\n            if (msg.sender != _order.BayerAddress) {\n                continue;\n            }\n\n            if (_order.FileID == _fileID) {\n                return i;\n            }\n            // кажись так цикл не остановить ((\n        }\n    }\n\n    function canselOrder(uint _orderID) public { //todo создать функцию отмена заказа\n        oneOrder storage _order =  allOrders[_orderID];\n        require(_order.OwnerApprove != true && _order.BayerApprove != true);\n        require(_order.IsPayed == false, \"the order has been already payed\");\n        require(_order.BayerAddress == msg.sender);\n        address _bayerAddress = _order.BayerAddress;\n        uint amount = _order.FixPrise;\n        _order.IsPayed = true;\n        _bayerAddress.transfer(amount);\n    }\n\n//    function disput(uint _orderID, string _complaint) public {\n//        oneOrder storage _order = allOrders[_orderID];\n//        sFile storage _fileInfo = dbFiles[_order.FileID];\n//    }\n\n}",
  "sourcePath": "/Users/victor/Documents/Blockchain/week7/marketplace/contracts/MarketPlace.sol",
  "compiler": {
    "name": "solc",
    "version": "0.4.24+commit.e67f0147.Emscripten.clang"
  },
  "schemaVersion": "2.0.1",
  "updatedAt": "2018-10-11T08:37:13.835Z"
}