{
  "contractName": "VulnerableOne",
  "abi": [
    {
      "constant": true,
      "inputs": [
        {
          "name": "",
          "type": "address"
        }
      ],
      "name": "users_map",
      "outputs": [
        {
          "name": "created",
          "type": "uint256"
        },
        {
          "name": "ether_balance",
          "type": "uint256"
        }
      ],
      "payable": false,
      "stateMutability": "view",
      "type": "function"
    },
    {
      "inputs": [],
      "payable": false,
      "stateMutability": "nonpayable",
      "type": "constructor"
    },
    {
      "anonymous": false,
      "inputs": [
        {
          "indexed": false,
          "name": "new_user",
          "type": "address"
        }
      ],
      "name": "UserAdded",
      "type": "event"
    },
    {
      "constant": false,
      "inputs": [
        {
          "name": "_new_super_user",
          "type": "address"
        }
      ],
      "name": "set_super_user",
      "outputs": [],
      "payable": false,
      "stateMutability": "nonpayable",
      "type": "function"
    },
    {
      "constant": false,
      "inputs": [],
      "name": "pay",
      "outputs": [],
      "payable": true,
      "stateMutability": "payable",
      "type": "function"
    },
    {
      "constant": false,
      "inputs": [
        {
          "name": "_new_user",
          "type": "address"
        }
      ],
      "name": "add_new_user",
      "outputs": [],
      "payable": false,
      "stateMutability": "nonpayable",
      "type": "function"
    },
    {
      "constant": false,
      "inputs": [
        {
          "name": "_remove_user",
          "type": "address"
        }
      ],
      "name": "remove_user",
      "outputs": [],
      "payable": false,
      "stateMutability": "nonpayable",
      "type": "function"
    },
    {
      "constant": false,
      "inputs": [],
      "name": "withdraw",
      "outputs": [],
      "payable": false,
      "stateMutability": "nonpayable",
      "type": "function"
    },
    {
      "constant": true,
      "inputs": [
        {
          "name": "_user",
          "type": "address"
        }
      ],
      "name": "get_user_balance",
      "outputs": [
        {
          "name": "",
          "type": "uint256"
        }
      ],
      "payable": false,
      "stateMutability": "view",
      "type": "function"
    }
  ],
  "bytecode": "0x608060405234801561001057600080fd5b506100233364010000000061003a810204565b61003533640100000000610061810204565b610120565b600160a060020a03166000908152600160208190526040909120805460ff19169091179055565b3360009081526001602081905260409091205460ff1615151461008357600080fd5b600160a060020a038116600090815260208190526040902054156100a657600080fd5b60408051808201825242815260006020808301828152600160a060020a03909516808352908290529281209151825592516001918201556002805491820181559092527f405787fa12a823e0f2b7631cc41b3ba8828b3321ca811111fa75cd3aa3bb5ace9091018054600160a060020a0319169091179055565b6104548061012f6000396000f3006080604052600436106100825763ffffffff7c01000000000000000000000000000000000000000000000000000000006000350416630b399d6d81146100875780631b9265b8146100c15780633ccfd60b146100cb57806345dea629146100e05780638f4b605f14610113578063b07048d914610134578063d8b5b6f414610155575b600080fd5b34801561009357600080fd5b506100a8600160a060020a0360043516610176565b6040805192835260208301919091528051918290030190f35b6100c961018f565b005b3480156100d757600080fd5b506100c96101c4565b3480156100ec57600080fd5b50610101600160a060020a0360043516610214565b60408051918252519081900360200190f35b34801561011f57600080fd5b506100c9600160a060020a0360043516610232565b34801561014057600080fd5b506100c9600160a060020a03600435166102fe565b34801561016157600080fd5b506100c9600160a060020a0360043516610401565b6000602081905290815260409020805460019091015482565b3360009081526020819052604090205415156101aa57600080fd5b336000908152602081905260409020600101805434019055565b3360008181526020819052604080822060010154905181156108fc0292818181858888f193505050501580156101fe573d6000803e3d6000fd5b5033600090815260208190526040812060010155565b600160a060020a031660009081526020819052604090206001015490565b3360009081526001602081905260409091205460ff1615151461025457600080fd5b600160a060020a0381166000908152602081905260409020541561027757600080fd5b60408051808201825242815260006020808301828152600160a060020a03909516808352908290529281209151825592516001918201556002805491820181559092527f405787fa12a823e0f2b7631cc41b3ba8828b3321ca811111fa75cd3aa3bb5ace909101805473ffffffffffffffffffffffffffffffffffffffff19169091179055565b336000908152602081905260408120548190151561031b57600080fd5b5050600160a060020a0381166000908152602081905260408120818155600101819055805b6002548110156103fc5782600160a060020a031660028281548110151561036357fe5b600091825260209091200154600160a060020a0316141561038357600191505b600182151514156103f457600280546001830190811061039f57fe5b60009182526020909120015460028054600160a060020a0390921691839081106103c557fe5b9060005260206000200160006101000a815481600160a060020a030219169083600160a060020a031602179055505b600101610340565b505050565b600160a060020a03166000908152600160208190526040909120805460ff191690911790555600a165627a7a723058205bca23ad8d9f0e16f17b3d3fe25f0182bcb7b164955c95fb5e8d50db99a41a530029",
  "source": "pragma solidity ^0.4.23;\n\nimport \"zeppelin-solidity/contracts/math/SafeMath.sol\";\n\n/*\nTZ: contract creator becomes the first superuser. Then he adds new users and superusers. Every superuser can add new users and superusers;\nIf user sends ether, his balance is increased. Then he can withdraw eteher from his balance;\n*/\n\n\ncontract VulnerableOne {\n    using SafeMath for uint;\n\n    struct UserInfo {\n        uint256 created;\n\t\tuint256 ether_balance;\n    }\n\n    mapping (address => UserInfo) public users_map;\n\tmapping (address => bool) is_super_user;\n\taddress[] users_list;\n\tmodifier onlySuperUser() {\n        require(is_super_user[msg.sender] == true);\n        _;\n    }\n\n    event UserAdded(address new_user);\n\n    constructor() public {\n\t\tset_super_user(msg.sender);\n\t\tadd_new_user(msg.sender);\n\t}\n\n\tfunction set_super_user(address _new_super_user) public {\n\t\tis_super_user[_new_super_user] = true;\n\t}\n\n\tfunction pay() public payable {\n\t\trequire(users_map[msg.sender].created != 0);\n\t\tusers_map[msg.sender].ether_balance += msg.value;\n\t}\n\n\tfunction add_new_user(address _new_user) public onlySuperUser {\n\t\trequire(users_map[_new_user].created == 0);\n\t\tusers_map[_new_user] = UserInfo({ created: now, ether_balance: 0 });\n\t\tusers_list.push(_new_user);\n\t}\n\t\n\tfunction remove_user(address _remove_user) public {\n\t\trequire(users_map[msg.sender].created != 0);\n\t\tdelete(users_map[_remove_user]);\n\t\tbool shift = false;\n\t\tfor (uint i=0; i<users_list.length; i++) {\n\t\t\tif (users_list[i] == _remove_user) {\n\t\t\t\tshift = true;\n\t\t\t}\n\t\t\tif (shift == true) {\n\t\t\t\tusers_list[i] = users_list[i+1];\n\t\t\t}\n\t\t}\n\t}\n\n\tfunction withdraw() public {\n        msg.sender.transfer(users_map[msg.sender].ether_balance);\n\t\tusers_map[msg.sender].ether_balance = 0;\n\t}\n\n\tfunction get_user_balance(address _user) public view returns(uint256) {\n\t\treturn users_map[_user].ether_balance;\n\t}\n\n}\n",
  "sourcePath": "/Users/victor/Documents/Blockchain/week4/contracts/Audit_contract.sol",
  "compiler": {
    "name": "solc",
    "version": "0.4.24+commit.e67f0147.Emscripten.clang"
  },
  "schemaVersion": "2.0.1",
  "updatedAt": "2018-07-26T11:59:11.634Z"
}