{
  "contractName": "anonymousVoting",
  "abi": [
    {
      "inputs": [
        {
          "name": "_startDate",
          "type": "uint32"
        },
        {
          "name": "_getSecretPhaseDate",
          "type": "uint32"
        },
        {
          "name": "_endDate",
          "type": "uint32"
        }
      ],
      "payable": false,
      "stateMutability": "nonpayable",
      "type": "constructor"
    },
    {
      "anonymous": false,
      "inputs": [
        {
          "indexed": false,
          "name": "",
          "type": "uint256"
        }
      ],
      "name": "XXX",
      "type": "event"
    },
    {
      "constant": false,
      "inputs": [
        {
          "name": "_voteHash",
          "type": "bytes32"
        }
      ],
      "name": "vote",
      "outputs": [],
      "payable": false,
      "stateMutability": "nonpayable",
      "type": "function"
    },
    {
      "constant": true,
      "inputs": [
        {
          "name": "_vote",
          "type": "bool"
        },
        {
          "name": "_word",
          "type": "bytes32"
        }
      ],
      "name": "hashVote",
      "outputs": [
        {
          "name": "",
          "type": "bytes32"
        }
      ],
      "payable": false,
      "stateMutability": "pure",
      "type": "function"
    },
    {
      "constant": false,
      "inputs": [
        {
          "name": "_vote",
          "type": "bool"
        },
        {
          "name": "_word",
          "type": "bytes32"
        }
      ],
      "name": "openvote",
      "outputs": [],
      "payable": false,
      "stateMutability": "nonpayable",
      "type": "function"
    },
    {
      "constant": true,
      "inputs": [],
      "name": "stats",
      "outputs": [
        {
          "name": "",
          "type": "uint256"
        },
        {
          "name": "",
          "type": "uint256"
        }
      ],
      "payable": false,
      "stateMutability": "view",
      "type": "function"
    }
  ],
  "bytecode": "0x608060405234801561001057600080fd5b5060405160608061058a83398101604081815282516020808501519483015160608501845263ffffffff92831680865295831691850182905291909116919092018190526000805463ffffffff191690931767ffffffff00000000191664010000000090920291909117604060020a63ffffffff021916680100000000000000009091021781556104e39081906100a790396000f3006080604052600436106100615763ffffffff7c010000000000000000000000000000000000000000000000000000000060003504166336cfd33f811461006657806391aeccf014610085578063a69beaba146100b4578063d80528ae146100cc575b600080fd5b34801561007257600080fd5b5061008360043515156024356100fa565b005b34801561009157600080fd5b506100a26004351515602435610228565b60408051918252519081900360200190f35b3480156100c057600080fd5b506100836004356102d7565b3480156100d857600080fd5b506100e161037a565b6040805192835260208301919091528051918290030190f35b600054426801000000000000000090910463ffffffff16101561011c57600080fd5b3360009081526002602052604090205460ff16151561013a57600080fd5b33600360006101498585610228565b815260208101919091526040016000205473ffffffffffffffffffffffffffffffffffffffff1614156101ef5781151560009081526001602081815260408084208054808501825590855293829020909301805473ffffffffffffffffffffffffffffffffffffffff191633179055825191825291517f895ba8104e377676fc289ea304d6dcf9484cb9393ee60610f4bad227e29e219f929181900390910190a1610224565b604080516000815290517f895ba8104e377676fc289ea304d6dcf9484cb9393ee60610f4bad227e29e219f9181900360200190a15b5050565b604080517f0100000000000000000000000000000000000000000000000000000000000000841515026020808301919091526021808301859052835180840390910181526041909201928390528151600093918291908401908083835b602083106102a45780518252601f199092019160209182019101610285565b5181516020939093036101000a600019018019909116921691909117905260405192018290039091209695505050505050565b6000544263ffffffff90911611156102ee57600080fd5b600054426801000000000000000090910463ffffffff16101561031057600080fd5b3360009081526002602052604090205460ff1615156001141561033257600080fd5b336000818152600260209081526040808320805460ff191660011790559382526003905291909120805473ffffffffffffffffffffffffffffffffffffffff19169091179055565b6000808052600160209081527fa6eef7e35abe7026729641147f7915573c7e97b47efa546f5f6e3230263bcb498054604080518285028101850190915281815284936060938493869384939092919083018282801561040f57602002820191906000526020600020905b815473ffffffffffffffffffffffffffffffffffffffff1681526001909101906020018083116103e4575b50506001600081905260209081527fcc69885fda6bcc1a4ace058b4a62bf5e179ea78fd58a1ccd71c22cc9b688792f80546040805182850281018501909152818152969a50909450925084019050828280156104a157602002820191906000526020600020905b815473ffffffffffffffffffffffffffffffffffffffff168152600190910190602001808311610476575b50509651925192999298509196505050505050505600a165627a7a72305820c56f811c6082477a1c8fafbe925856ddd79915768c982f42d24bd84c9ec0e9540029",
  "source": "pragma solidity ^0.4.0;\n\ncontract anonymousVoting {\n\n\n    struct structVoting {\n        uint32 startDate;\n        uint32 getSecretPhraseDate;\n        uint32 endDate;\n    }\n    structVoting voting;\n    mapping(bool => address[]) votes;// ответы надо шифровать\n    mapping(address => bool) usersDb;// todo: в мапинге надо хранить хеш голосов\n    mapping(bytes32 => address) hashBd;\n\n    event XXX(uint256);\n\n    constructor(uint32 _startDate, uint32 _getSecretPhaseDate, uint32 _endDate) public{\n        voting = structVoting(_startDate, _getSecretPhaseDate, _endDate);\n    }\n\n    // todo: добавить шифрование в массив\n    // add: добавил string который используется для шифрования голоса\n    function vote(bytes32 _voteHash) public {\n        require(voting.startDate <= now);\n        require(voting.endDate >= now);\n        require(usersDb[msg.sender] != true);\n\n        usersDb[msg.sender] = true; // помечаем кто проголосовал\n        hashBd[_voteHash] = msg.sender;\n    }\n\n    function hashVote(bool _vote, bytes32 _word) public pure returns (bytes32) {\n        return keccak256(abi.encodePacked(_vote, _word));\n    }\n\n    function openvote(bool _vote, bytes32 _word) public {\n        require(voting.endDate >= now);\n        require(usersDb[msg.sender]);\n\n        if (hashBd[hashVote(_vote, _word)] == msg.sender){\n            votes[_vote].push(msg.sender);\n            emit XXX(1);\n            return;\n        }\n        emit XXX(0);\n    }\n\n    //todo : необходимо получать ключевую фразу от пользователя для расшифровки ответа\n    function stats() public view returns (uint, uint){\n        address[] memory _arrayVotesNo = votes[false];\n        address[] memory _arrayVotesYes = votes[true];\n        uint no = _arrayVotesNo.length;\n        uint yes = _arrayVotesYes.length;\n        return (no, yes);\n\n    }\n\n}\n\n",
  "sourcePath": "/Users/victor/Documents/Blockchain/week3/voting/contracts/anonymousVoting.sol",
  "compiler": {
    "name": "solc",
    "version": "0.4.24+commit.e67f0147.Emscripten.clang"
  },
  "schemaVersion": "2.0.1",
  "updatedAt": "2018-08-12T12:17:22.392Z"
}