{
  "contractName": "anonymousVoting",
  "abi": [
    {
      "inputs": [
        {
          "name": "_startDate",
          "type": "uint32"
        },
        {
          "name": "_getSecretPhaseDate",
          "type": "uint32"
        },
        {
          "name": "_endDate",
          "type": "uint32"
        }
      ],
      "payable": false,
      "stateMutability": "nonpayable",
      "type": "constructor"
    },
    {
      "constant": false,
      "inputs": [
        {
          "name": "_vote",
          "type": "bool"
        }
      ],
      "name": "vote",
      "outputs": [],
      "payable": false,
      "stateMutability": "nonpayable",
      "type": "function"
    },
    {
      "constant": true,
      "inputs": [],
      "name": "stats",
      "outputs": [
        {
          "name": "",
          "type": "uint256"
        },
        {
          "name": "",
          "type": "uint256"
        }
      ],
      "payable": false,
      "stateMutability": "view",
      "type": "function"
    }
  ],
  "bytecode": "0x608060405234801561001057600080fd5b506040516060806102e883398101604081815282516020808501519483015160608501845263ffffffff92831680865295831691850182905291909116919092018190526000805463ffffffff191690931767ffffffff00000000191664010000000090920291909117604060020a63ffffffff021916680100000000000000009091021781556102419081906100a790396000f30060806040526004361061004b5763ffffffff7c01000000000000000000000000000000000000000000000000000000006000350416634b9f5c988114610050578063d80528ae1461006c575b600080fd5b34801561005c57600080fd5b5061006a600435151561009a565b005b34801561007857600080fd5b506100816100d8565b6040805192835260208301919091528051918290030190f35b15156000908152600160208181526040832080549283018155835290912001805473ffffffffffffffffffffffffffffffffffffffff191633179055565b6000808052600160209081527fa6eef7e35abe7026729641147f7915573c7e97b47efa546f5f6e3230263bcb498054604080518285028101850190915281815284936060938493869384939092919083018282801561016d57602002820191906000526020600020905b815473ffffffffffffffffffffffffffffffffffffffff168152600190910190602001808311610142575b50506001600081905260209081527fcc69885fda6bcc1a4ace058b4a62bf5e179ea78fd58a1ccd71c22cc9b688792f80546040805182850281018501909152818152969a50909450925084019050828280156101ff57602002820191906000526020600020905b815473ffffffffffffffffffffffffffffffffffffffff1681526001909101906020018083116101d4575b50509651925192999298509196505050505050505600a165627a7a72305820d509b55d160e8112634bbbf14a514c45d9e2a8c96dc59c176253c9996f016af00029",
  "source": "pragma solidity ^0.4.0;\n\ncontract anonymousVoting {\n\n    struct structVoting {\n        uint32 startDate;\n        uint32 getSecretPhraseDate;\n        uint32 endDate;\n    }\n\n    structVoting voting;\n    mapping(bool => address[]) votes;\n\n    constructor(uint32 _startDate, uint32 _getSecretPhaseDate, uint32 _endDate) public{\n        voting = structVoting(_startDate, _getSecretPhaseDate, _endDate);\n\n    }\n\n    function vote(bool _vote) public {\n       address[] storage _arrayVotes = votes[_vote];\n        _arrayVotes.push(msg.sender);\n    }\n\n    function stats() public view returns (uint, uint){\n        address[] memory _arrayVotesNo = votes[false];\n        address[] memory _arrayVotesYes = votes[true];\n        uint no = _arrayVotesNo.length;\n        uint yes = _arrayVotesYes.length;\n        return (no, yes);\n   }\n\n}\n\n",
  "sourcePath": "/Users/victor/Documents/Blockchain/week3/project/contracts/voting.sol",
  "compiler": {
    "name": "solc",
    "version": "0.4.24+commit.e67f0147.Emscripten.clang"
  },
  "schemaVersion": "2.0.1",
  "updatedAt": "2018-07-29T09:22:33.837Z"
}