{
  "contractName": "Bonus",
  "abi": [
    {
      "constant": false,
      "inputs": [
        {
          "name": "_spender",
          "type": "address"
        },
        {
          "name": "_value",
          "type": "uint256"
        }
      ],
      "name": "approve",
      "outputs": [
        {
          "name": "",
          "type": "bool"
        }
      ],
      "payable": false,
      "stateMutability": "nonpayable",
      "type": "function"
    },
    {
      "constant": true,
      "inputs": [],
      "name": "totalSupply",
      "outputs": [
        {
          "name": "",
          "type": "uint256"
        }
      ],
      "payable": false,
      "stateMutability": "view",
      "type": "function"
    },
    {
      "constant": false,
      "inputs": [
        {
          "name": "_from",
          "type": "address"
        },
        {
          "name": "_to",
          "type": "address"
        },
        {
          "name": "_value",
          "type": "uint256"
        }
      ],
      "name": "transferFrom",
      "outputs": [
        {
          "name": "",
          "type": "bool"
        }
      ],
      "payable": false,
      "stateMutability": "nonpayable",
      "type": "function"
    },
    {
      "constant": false,
      "inputs": [
        {
          "name": "_spender",
          "type": "address"
        },
        {
          "name": "_subtractedValue",
          "type": "uint256"
        }
      ],
      "name": "decreaseApproval",
      "outputs": [
        {
          "name": "",
          "type": "bool"
        }
      ],
      "payable": false,
      "stateMutability": "nonpayable",
      "type": "function"
    },
    {
      "constant": true,
      "inputs": [
        {
          "name": "_owner",
          "type": "address"
        }
      ],
      "name": "balanceOf",
      "outputs": [
        {
          "name": "",
          "type": "uint256"
        }
      ],
      "payable": false,
      "stateMutability": "view",
      "type": "function"
    },
    {
      "constant": true,
      "inputs": [],
      "name": "owner",
      "outputs": [
        {
          "name": "",
          "type": "address"
        }
      ],
      "payable": false,
      "stateMutability": "view",
      "type": "function"
    },
    {
      "constant": false,
      "inputs": [
        {
          "name": "_to",
          "type": "address"
        },
        {
          "name": "_value",
          "type": "uint256"
        }
      ],
      "name": "transfer",
      "outputs": [
        {
          "name": "",
          "type": "bool"
        }
      ],
      "payable": false,
      "stateMutability": "nonpayable",
      "type": "function"
    },
    {
      "constant": false,
      "inputs": [
        {
          "name": "_spender",
          "type": "address"
        },
        {
          "name": "_addedValue",
          "type": "uint256"
        }
      ],
      "name": "increaseApproval",
      "outputs": [
        {
          "name": "",
          "type": "bool"
        }
      ],
      "payable": false,
      "stateMutability": "nonpayable",
      "type": "function"
    },
    {
      "constant": true,
      "inputs": [
        {
          "name": "_owner",
          "type": "address"
        },
        {
          "name": "_spender",
          "type": "address"
        }
      ],
      "name": "allowance",
      "outputs": [
        {
          "name": "",
          "type": "uint256"
        }
      ],
      "payable": false,
      "stateMutability": "view",
      "type": "function"
    },
    {
      "inputs": [],
      "payable": false,
      "stateMutability": "nonpayable",
      "type": "constructor"
    },
    {
      "anonymous": false,
      "inputs": [
        {
          "indexed": true,
          "name": "owner",
          "type": "address"
        },
        {
          "indexed": true,
          "name": "spender",
          "type": "address"
        },
        {
          "indexed": false,
          "name": "value",
          "type": "uint256"
        }
      ],
      "name": "Approval",
      "type": "event"
    },
    {
      "anonymous": false,
      "inputs": [
        {
          "indexed": true,
          "name": "from",
          "type": "address"
        },
        {
          "indexed": true,
          "name": "to",
          "type": "address"
        },
        {
          "indexed": false,
          "name": "value",
          "type": "uint256"
        }
      ],
      "name": "Transfer",
      "type": "event"
    },
    {
      "constant": false,
      "inputs": [
        {
          "name": "_cost",
          "type": "uint256"
        },
        {
          "name": "_time",
          "type": "uint256"
        }
      ],
      "name": "makeOrder",
      "outputs": [],
      "payable": false,
      "stateMutability": "nonpayable",
      "type": "function"
    },
    {
      "constant": false,
      "inputs": [],
      "name": "compliteOrder",
      "outputs": [],
      "payable": false,
      "stateMutability": "nonpayable",
      "type": "function"
    }
  ],
  "bytecode": "0x608060405234801561001057600080fd5b503360008181526020818152604080832060001990819055600181905560038054600160a060020a03191686179055815190815290517fddf252ad1be2c89b69c2b068fc378daa952ba7f163c4a11628f55a4df523b3ef929181900390910190a36107ac806100806000396000f3006080604052600436106100ae5763ffffffff7c0100000000000000000000000000000000000000000000000000000000600035041663095ea7b381146100b357806318160ddd146100eb57806323b872dd14610112578063661884631461013c57806370a08231146101605780638da5cb5b146101815780639bc80102146101b2578063a9059cbb146101cf578063b9c726d8146101f3578063d73dd62314610208578063dd62ed3e1461022c575b600080fd5b3480156100bf57600080fd5b506100d7600160a060020a0360043516602435610253565b604080519115158252519081900360200190f35b3480156100f757600080fd5b506101006102b9565b60408051918252519081900360200190f35b34801561011e57600080fd5b506100d7600160a060020a03600435811690602435166044356102bf565b34801561014857600080fd5b506100d7600160a060020a0360043516602435610436565b34801561016c57600080fd5b50610100600160a060020a0360043516610526565b34801561018d57600080fd5b50610196610541565b60408051600160a060020a039092168252519081900360200190f35b3480156101be57600080fd5b506101cd600435602435610550565b005b3480156101db57600080fd5b506100d7600160a060020a036004351660243561059b565b3480156101ff57600080fd5b506101cd61067c565b34801561021457600080fd5b506100d7600160a060020a0360043516602435610697565b34801561023857600080fd5b50610100600160a060020a0360043581169060243516610730565b336000818152600260209081526040808320600160a060020a038716808552908352818420869055815186815291519394909390927f8c5be1e5ebec7d5bd14f71427d1e84f3dd0314c0f7b2291e5b200ac8c7c3b925928290030190a350600192915050565b60015490565b6000600160a060020a03831615156102d657600080fd5b600160a060020a0384166000908152602081905260409020548211156102fb57600080fd5b600160a060020a038416600090815260026020908152604080832033845290915290205482111561032b57600080fd5b600160a060020a038416600090815260208190526040902054610354908363ffffffff61075b16565b600160a060020a038086166000908152602081905260408082209390935590851681522054610389908363ffffffff61076d16565b600160a060020a038085166000908152602081815260408083209490945591871681526002825282812033825290915220546103cb908363ffffffff61075b16565b600160a060020a03808616600081815260026020908152604080832033845282529182902094909455805186815290519287169391927fddf252ad1be2c89b69c2b068fc378daa952ba7f163c4a11628f55a4df523b3ef929181900390910190a35060019392505050565b336000908152600260209081526040808320600160a060020a03861684529091528120548083111561048b57336000908152600260209081526040808320600160a060020a03881684529091528120556104c0565b61049b818463ffffffff61075b16565b336000908152600260209081526040808320600160a060020a03891684529091529020555b336000818152600260209081526040808320600160a060020a0389168085529083529281902054815190815290519293927f8c5be1e5ebec7d5bd14f71427d1e84f3dd0314c0f7b2291e5b200ac8c7c3b925929181900390910190a35060019392505050565b600160a060020a031660009081526020819052604090205490565b600354600160a060020a031681565b60408051606081018252928352602080840192835260008483018181523382526004909252919091209251835590516001830155516002909101805460ff1916911515919091179055565b6000600160a060020a03831615156105b257600080fd5b336000908152602081905260409020548211156105ce57600080fd5b336000908152602081905260409020546105ee908363ffffffff61075b16565b3360009081526020819052604080822092909255600160a060020a03851681522054610620908363ffffffff61076d16565b600160a060020a038416600081815260208181526040918290209390935580518581529051919233927fddf252ad1be2c89b69c2b068fc378daa952ba7f163c4a11628f55a4df523b3ef9281900390910190a350600192915050565b60035461069490600160a060020a03163360016102bf565b50565b336000908152600260209081526040808320600160a060020a03861684529091528120546106cb908363ffffffff61076d16565b336000818152600260209081526040808320600160a060020a0389168085529083529281902085905580519485525191937f8c5be1e5ebec7d5bd14f71427d1e84f3dd0314c0f7b2291e5b200ac8c7c3b925929081900390910190a350600192915050565b600160a060020a03918216600090815260026020908152604080832093909416825291909152205490565b60008282111561076757fe5b50900390565b8181018281101561077a57fe5b929150505600a165627a7a7230582028783b03324f21da005ba7e1ace2d367ba8129e1a5e9afa3aa773223d42e3f820029",
  "source": "pragma solidity ^0.4.0;\n\nimport \"zeppelin-solidity/contracts/token/ERC20/StandardToken.sol\";\n\ncontract Bonus is StandardToken {\n\n    address public owner;\n\n    constructor() public {\n        balances[msg.sender] = 2**256-1;\n        totalSupply_ = balances[msg.sender];\n        owner = msg.sender;\n        emit Transfer(address(0), msg.sender, totalSupply_);\n    }\n    struct order {\n        uint cost;\n        uint timeToGet;\n        bool done;\n    }\n    mapping (address => order) allOrders;\n\n    function makeOrder(uint _cost, uint _time) public {\n        allOrders[msg.sender] = order(_cost, _time, false);\n    }\n\n    function compliteOrder() public {\n        transferFrom(owner, msg.sender, 1);\n        //allOrders[msg.sender].done = true;\n    }\n\n\n\n//\n//    function freeze(uint thawTS) public {\n//        require(m_freeze_info[msg.sender] <= now);\n//        m_freeze_info[msg.sender] = thawTS;\n//    }\n//\n//    function transferFrom(address _from, address _to, uint256 _value) public returns (bool){\n//        require(m_freeze_info[_from] <= now);\n//        return super.transferFrom(_from, _to, _value);\n//\n//    }\n//\n//    function transfer(address _to, uint256 _value) public returns (bool) {\n//        require(m_freeze_info[msg.sender] <= now);\n//        return super.transfer(_to, _value);\n//    }\n//\n//    mapping (address => uint) public m_freeze_info;\n}\n",
  "sourcePath": "/Users/victor/Documents/Blockchain/week3/project/contracts/bonus.sol",
  "compiler": {
    "name": "solc",
    "version": "0.4.24+commit.e67f0147.Emscripten.clang"
  },
  "schemaVersion": "2.0.1",
  "updatedAt": "2018-07-22T11:27:40.054Z"
}