{
  "contractName": "Ticket",
  "abi": [
    {
      "constant": false,
      "inputs": [],
      "name": "renounceOwnership",
      "outputs": [],
      "payable": false,
      "stateMutability": "nonpayable",
      "type": "function"
    },
    {
      "constant": true,
      "inputs": [],
      "name": "allTicket",
      "outputs": [
        {
          "name": "",
          "type": "uint256"
        }
      ],
      "payable": false,
      "stateMutability": "view",
      "type": "function"
    },
    {
      "constant": true,
      "inputs": [],
      "name": "owner",
      "outputs": [
        {
          "name": "",
          "type": "address"
        }
      ],
      "payable": false,
      "stateMutability": "view",
      "type": "function"
    },
    {
      "constant": false,
      "inputs": [
        {
          "name": "_newOwner",
          "type": "address"
        }
      ],
      "name": "transferOwnership",
      "outputs": [],
      "payable": false,
      "stateMutability": "nonpayable",
      "type": "function"
    },
    {
      "inputs": [],
      "payable": false,
      "stateMutability": "nonpayable",
      "type": "constructor"
    },
    {
      "anonymous": false,
      "inputs": [
        {
          "indexed": true,
          "name": "previousOwner",
          "type": "address"
        }
      ],
      "name": "OwnershipRenounced",
      "type": "event"
    },
    {
      "anonymous": false,
      "inputs": [
        {
          "indexed": true,
          "name": "previousOwner",
          "type": "address"
        },
        {
          "indexed": true,
          "name": "newOwner",
          "type": "address"
        }
      ],
      "name": "OwnershipTransferred",
      "type": "event"
    },
    {
      "constant": false,
      "inputs": [
        {
          "name": "_selfAddress",
          "type": "address"
        }
      ],
      "name": "start",
      "outputs": [],
      "payable": false,
      "stateMutability": "nonpayable",
      "type": "function"
    },
    {
      "constant": false,
      "inputs": [
        {
          "name": "_owner",
          "type": "address"
        },
        {
          "name": "_numberOfTickets",
          "type": "uint256"
        }
      ],
      "name": "buy",
      "outputs": [],
      "payable": true,
      "stateMutability": "payable",
      "type": "function"
    },
    {
      "constant": true,
      "inputs": [
        {
          "name": "_owner",
          "type": "address"
        },
        {
          "name": "_allTicket",
          "type": "uint256"
        }
      ],
      "name": "hash",
      "outputs": [
        {
          "name": "",
          "type": "bytes32"
        }
      ],
      "payable": false,
      "stateMutability": "view",
      "type": "function"
    },
    {
      "constant": true,
      "inputs": [
        {
          "name": "_ticketId",
          "type": "bytes32"
        },
        {
          "name": "_ticketOwn",
          "type": "address"
        }
      ],
      "name": "test",
      "outputs": [
        {
          "name": "",
          "type": "bool"
        }
      ],
      "payable": false,
      "stateMutability": "view",
      "type": "function"
    }
  ],
  "bytecode": "0x608060405260ce6002556003805460ff1916905534801561001f57600080fd5b5060008054600160a060020a0319163317905561058d806100416000396000f30060806040526004361061008d5763ffffffff7c0100000000000000000000000000000000000000000000000000000000600035041663478bf16d811461009257806351208fb3146100ca578063715018a6146101005780637a1f6239146101175780638da5cb5b1461012c578063cce7ec131461015d578063dd0b281e14610174578063f2fde38b14610195575b600080fd5b34801561009e57600080fd5b506100b6600435600160a060020a03602435166101b6565b604080519115158252519081900360200190f35b3480156100d657600080fd5b506100ee600160a060020a036004351660243561026d565b60408051918252519081900360200190f35b34801561010c57600080fd5b50610115610323565b005b34801561012357600080fd5b506100ee61038f565b34801561013857600080fd5b50610141610395565b60408051600160a060020a039092168252519081900360200190f35b610115600160a060020a03600435166024356103a4565b34801561018057600080fd5b50610115600160a060020a036004351661045b565b3480156101a157600080fd5b50610115600160a060020a03600435166104c1565b600160a060020a03811660009081526004602090815260408083208054825181850281018501909352808352606093859392919083018282801561021a57602002820191906000526020600020905b81548152600190910190602001808311610205575b50505050509150600090505b8151811015610260578151859083908390811061023f57fe5b6020908102909101015114156102585760019250610265565b600101610226565b600092505b505092915050565b600354604080516c01000000000000000000000000600160a060020a03808716820260208085019190915260348401879052610100909504160260548201528151604881830301815260689091019182905280516000939192918291908401908083835b602083106102f05780518252601f1990920191602091820191016102d1565b5181516020939093036101000a600019018019909116921691909117905260405192018290039091209695505050505050565b600054600160a060020a0316331461033a57600080fd5b60008054604051600160a060020a03909116917ff8df31144d9c2f0f6b59d69b8b98abd5459d07f2742c4df920b25aae33c6482091a26000805473ffffffffffffffffffffffffffffffffffffffff19169055565b60025481565b600154600160a060020a031681565b6003546000908190819060ff1615156001146103bf57600080fd5b600084116103cc57600080fd5b6002548411156103db57600080fd5b66354a6ba7a1800084029250348311156103f457600080fd5b339450600091505b83821015610454576104108560025461026d565b600160a060020a03861660009081526004602090815260408220805460018181018355918452919092200182905560028054600019019055929092019190506103fc565b5050505050565b600054600160a060020a0316331461047257600080fd5b60035460ff161561048257600080fd5b60038054600160a060020a039092166101000274ffffffffffffffffffffffffffffffffffffffff001960ff1990931660011792909216919091179055565b600054600160a060020a031633146104d857600080fd5b6104e1816104e4565b50565b600160a060020a03811615156104f957600080fd5b60008054604051600160a060020a03808516939216917f8be0079c531659141344cd1fd0a4f28419497f9722a3daafe3b4186f6b6457e091a36000805473ffffffffffffffffffffffffffffffffffffffff1916600160a060020a03929092169190911790555600a165627a7a72305820b6d944505d9dd3a10bb9adcb9078d1671f43ae161b2ed0ecaaf93731f0ab57b60029",
  "source": "pragma solidity ^0.4.24;\n\n//import \"./ERC721Basic.sol\";\nimport \"./Ownable.sol\";\n\ncontract Ticket is Ownable {\n    address public owner;\n    uint public allTicket = 206;\n    uint constant ticketPrice = 15 finney;\n    bool isStart = false;\n    address selfAddress;\n\n// todo: структура битета владелец, тип, Idбилета, и еще что-то там\n//    struct ticket{\n//\n//    }\n\n    constructor() public Ownable() {}\n\n    modifier isStarted() {\n        require(isStart == true);\n        _;\n    }\n\n    function start(address _selfAddress) onlyOwner public { //\n        require(isStart == false);\n        isStart = true;\n        selfAddress = _selfAddress;\n    }\n\n    mapping (address => bytes32[]) soul;\n\n    function buy(address _owner, uint _numberOfTickets) payable isStarted public {\n        require(_numberOfTickets > 0);\n        require(_numberOfTickets <= allTicket);\n        uint _cost = _numberOfTickets * ticketPrice;\n        require(msg.value >= _cost);\n\n\n        _owner = msg.sender;\n\n        for(uint i = 0; i < _numberOfTickets; i++) {\n            bytes32 token = hash(_owner, allTicket); // remove _numberOfTickets\n            soul[_owner].push(token);\n            allTicket--;\n        }\n\n    }\n\n    function hash(address _owner, uint _allTicket) public view returns(bytes32) { //remove uint _numberOfTickets; pure to view\n        return keccak256(abi.encodePacked(_owner, _allTicket, selfAddress)); //remplace _numberOfTickets to _allTicket\n    }\n\n    function test(bytes32 _ticketId, address _ticketOwn) public view returns(bool){\n        //bool ansver = false;\n        bytes32[] memory _ticketList = soul[_ticketOwn];\n        for(uint i = 0; i< _ticketList.length; i++ ) {\n            if(_ticketList[i] == _ticketId){\n                return true;\n            }\n        }\n        return false;\n    }\n}\n",
  "sourcePath": "/Users/victor/Documents/Blockchain/week6/Ticket/contracts/Ticket.sol",
  "compiler": {
    "name": "solc",
    "version": "0.4.24+commit.e67f0147.Emscripten.clang"
  },
  "schemaVersion": "2.0.1",
  "updatedAt": "2018-08-24T18:31:06.777Z"
}