{
  "contractName": "Tickets",
  "abi": [
    {
      "constant": false,
      "inputs": [],
      "name": "renounceOwnership",
      "outputs": [],
      "payable": false,
      "stateMutability": "nonpayable",
      "type": "function"
    },
    {
      "constant": true,
      "inputs": [],
      "name": "allTicket",
      "outputs": [
        {
          "name": "",
          "type": "uint256"
        }
      ],
      "payable": false,
      "stateMutability": "view",
      "type": "function"
    },
    {
      "constant": true,
      "inputs": [],
      "name": "owner",
      "outputs": [
        {
          "name": "",
          "type": "address"
        }
      ],
      "payable": false,
      "stateMutability": "view",
      "type": "function"
    },
    {
      "constant": false,
      "inputs": [
        {
          "name": "_newOwner",
          "type": "address"
        }
      ],
      "name": "transferOwnership",
      "outputs": [],
      "payable": false,
      "stateMutability": "nonpayable",
      "type": "function"
    },
    {
      "inputs": [],
      "payable": false,
      "stateMutability": "nonpayable",
      "type": "constructor"
    },
    {
      "anonymous": false,
      "inputs": [
        {
          "indexed": true,
          "name": "previousOwner",
          "type": "address"
        }
      ],
      "name": "OwnershipRenounced",
      "type": "event"
    },
    {
      "anonymous": false,
      "inputs": [
        {
          "indexed": true,
          "name": "previousOwner",
          "type": "address"
        },
        {
          "indexed": true,
          "name": "newOwner",
          "type": "address"
        }
      ],
      "name": "OwnershipTransferred",
      "type": "event"
    },
    {
      "constant": false,
      "inputs": [
        {
          "name": "_selfAddress",
          "type": "address"
        }
      ],
      "name": "start",
      "outputs": [],
      "payable": false,
      "stateMutability": "nonpayable",
      "type": "function"
    },
    {
      "constant": false,
      "inputs": [
        {
          "name": "_owner",
          "type": "address"
        },
        {
          "name": "_numberOfTickets",
          "type": "uint256"
        }
      ],
      "name": "ticket",
      "outputs": [],
      "payable": true,
      "stateMutability": "payable",
      "type": "function"
    },
    {
      "constant": true,
      "inputs": [
        {
          "name": "_owner",
          "type": "address"
        },
        {
          "name": "_allTicket",
          "type": "uint256"
        }
      ],
      "name": "hashTicket",
      "outputs": [
        {
          "name": "",
          "type": "bytes32"
        }
      ],
      "payable": false,
      "stateMutability": "view",
      "type": "function"
    },
    {
      "constant": true,
      "inputs": [
        {
          "name": "_ticketId",
          "type": "bytes32"
        },
        {
          "name": "_ticketOwn",
          "type": "address"
        }
      ],
      "name": "testTickets",
      "outputs": [
        {
          "name": "",
          "type": "bool"
        }
      ],
      "payable": false,
      "stateMutability": "view",
      "type": "function"
    }
  ],
  "bytecode": "0x608060405260ce6002556000600360006101000a81548160ff02191690831515021790555034801561003057600080fd5b50336000806101000a81548173ffffffffffffffffffffffffffffffffffffffff021916908373ffffffffffffffffffffffffffffffffffffffff160217905550610997806100806000396000f30060806040526004361061008e576000357c0100000000000000000000000000000000000000000000000000000000900463ffffffff1680630dba690d14610093578063294a7180146100fc578063715018a6146101655780637a1f62391461017c5780638da5cb5b146101a7578063dd0b281e146101fe578063e11bb64d14610241578063f2fde38b14610281575b600080fd5b34801561009f57600080fd5b506100de600480360381019080803573ffffffffffffffffffffffffffffffffffffffff169060200190929190803590602001909291905050506102c4565b60405180826000191660001916815260200191505060405180910390f35b34801561010857600080fd5b5061014b6004803603810190808035600019169060200190929190803573ffffffffffffffffffffffffffffffffffffffff1690602001909291905050506103f8565b604051808215151515815260200191505060405180910390f35b34801561017157600080fd5b5061017a6104ea565b005b34801561018857600080fd5b506101916105ec565b6040518082815260200191505060405180910390f35b3480156101b357600080fd5b506101bc6105f2565b604051808273ffffffffffffffffffffffffffffffffffffffff1673ffffffffffffffffffffffffffffffffffffffff16815260200191505060405180910390f35b34801561020a57600080fd5b5061023f600480360381019080803573ffffffffffffffffffffffffffffffffffffffff169060200190929190505050610618565b005b61027f600480360381019080803573ffffffffffffffffffffffffffffffffffffffff169060200190929190803590602001909291905050506106f4565b005b34801561028d57600080fd5b506102c2600480360381019080803573ffffffffffffffffffffffffffffffffffffffff16906020019092919050505061080a565b005b60008282600360019054906101000a900473ffffffffffffffffffffffffffffffffffffffff16604051602001808473ffffffffffffffffffffffffffffffffffffffff1673ffffffffffffffffffffffffffffffffffffffff166c010000000000000000000000000281526014018381526020018273ffffffffffffffffffffffffffffffffffffffff1673ffffffffffffffffffffffffffffffffffffffff166c0100000000000000000000000002815260140193505050506040516020818303038152906040526040518082805190602001908083835b6020831015156103c3578051825260208201915060208101905060208303925061039e565b6001836020036101000a0380198251168184511680821785525050505050509050019150506040518091039020905092915050565b600060606000600460008573ffffffffffffffffffffffffffffffffffffffff1673ffffffffffffffffffffffffffffffffffffffff16815260200190815260200160002080548060200260200160405190810160405280929190818152602001828054801561048b57602002820191906000526020600020905b81546000191681526020019060010190808311610473575b50505050509150600090505b81518110156104dd57846000191682828151811015156104b357fe5b906020019060200201516000191614156104d057600192506104e2565b8080600101915050610497565b600092505b505092915050565b6000809054906101000a900473ffffffffffffffffffffffffffffffffffffffff1673ffffffffffffffffffffffffffffffffffffffff163373ffffffffffffffffffffffffffffffffffffffff1614151561054557600080fd5b6000809054906101000a900473ffffffffffffffffffffffffffffffffffffffff1673ffffffffffffffffffffffffffffffffffffffff167ff8df31144d9c2f0f6b59d69b8b98abd5459d07f2742c4df920b25aae33c6482060405160405180910390a260008060006101000a81548173ffffffffffffffffffffffffffffffffffffffff021916908373ffffffffffffffffffffffffffffffffffffffff160217905550565b60025481565b600160009054906101000a900473ffffffffffffffffffffffffffffffffffffffff1681565b6000809054906101000a900473ffffffffffffffffffffffffffffffffffffffff1673ffffffffffffffffffffffffffffffffffffffff163373ffffffffffffffffffffffffffffffffffffffff1614151561067357600080fd5b60001515600360009054906101000a900460ff16151514151561069557600080fd5b6001600360006101000a81548160ff02191690831515021790555080600360016101000a81548173ffffffffffffffffffffffffffffffffffffffff021916908373ffffffffffffffffffffffffffffffffffffffff16021790555050565b600080600060011515600360009054906101000a900460ff16151514151561071b57600080fd5b60008411151561072a57600080fd5b600254841115151561073b57600080fd5b66354a6ba7a180008402925082341015151561075657600080fd5b339450600091505b8382101561080357610772856002546102c4565b9050600460008673ffffffffffffffffffffffffffffffffffffffff1673ffffffffffffffffffffffffffffffffffffffff16815260200190815260200160002081908060018154018082558091505090600182039060005260206000200160009091929091909150906000191690555060026000815480929190600190039190505550818060010192505061075e565b5050505050565b6000809054906101000a900473ffffffffffffffffffffffffffffffffffffffff1673ffffffffffffffffffffffffffffffffffffffff163373ffffffffffffffffffffffffffffffffffffffff1614151561086557600080fd5b61086e81610871565b50565b600073ffffffffffffffffffffffffffffffffffffffff168173ffffffffffffffffffffffffffffffffffffffff16141515156108ad57600080fd5b8073ffffffffffffffffffffffffffffffffffffffff166000809054906101000a900473ffffffffffffffffffffffffffffffffffffffff1673ffffffffffffffffffffffffffffffffffffffff167f8be0079c531659141344cd1fd0a4f28419497f9722a3daafe3b4186f6b6457e060405160405180910390a3806000806101000a81548173ffffffffffffffffffffffffffffffffffffffff021916908373ffffffffffffffffffffffffffffffffffffffff160217905550505600a165627a7a7230582017014b8c42ab3453ece749ea3acd3078b1d38a92a036562b2a58b851413935580029",
  "source": "pragma solidity ^0.4.24;\n\n//import \"./ERC721Basic.sol\";\nimport \"./Ownable.sol\";\n\ncontract Tickets is Ownable {\n    address public owner;\n    uint public allTicket = 206;\n    uint constant ticketPrice = 15 finney;\n    bool isStart = false;\n    address selfAddress;\n\n// todo: структура битета владелец, тип, Idбилета, и еще что-то там\n//    struct ticket{\n//\n//    }\n\n    constructor() public Ownable() {}\n\n    modifier isStarted() {\n        require(isStart == true);\n        _;\n    }\n\n    function start(address _selfAddress) onlyOwner public {\n        require(isStart == false);\n        isStart = true;\n        selfAddress = _selfAddress;\n    }\n\n    mapping (address => bytes32[]) soul;\n\n    function ticket(address _owner, uint _numberOfTickets) payable isStarted public {\n        require(_numberOfTickets > 0);\n        require(_numberOfTickets <= allTicket);\n        uint _cost = _numberOfTickets * ticketPrice;\n        require(msg.value >= _cost);\n\n\n        _owner = msg.sender;\n\n        for(uint i = 0; i < _numberOfTickets; i++) {\n            bytes32 token = hashTicket(_owner, allTicket); // remove _numberOfTickets\n            soul[_owner].push(token);\n            allTicket--;\n        }\n\n    }\n\n    function hashTicket(address _owner, uint _allTicket) public view returns(bytes32) { //remove uint _numberOfTickets; pure to view\n        return keccak256(abi.encodePacked(_owner, _allTicket, selfAddress)); //remplace _numberOfTickets to _allTicket\n    }\n\n\n    function testTickets(bytes32 _ticketId, address _ticketOwn) public view returns(bool){\n        //bool ansver = false;\n        bytes32[] memory _ticketList = soul[_ticketOwn];\n        for(uint i = 0; i< _ticketList.length; i++ ) {\n            if(_ticketList[i] == _ticketId){\n                return true;\n            }\n        }\n        return false;\n    }\n\n}\n",
  "sourcePath": "/Users/victor/Documents/Blockchain/week6/Ticket/contracts/Ticket.sol",
  "compiler": {
    "name": "solc",
    "version": "0.4.24+commit.e67f0147.Emscripten.clang"
  },
  "schemaVersion": "2.0.1",
  "updatedAt": "2018-08-20T12:31:09.085Z"
}