{
  "contractName": "Ticket",
  "abi": [
    {
      "constant": false,
      "inputs": [],
      "name": "renounceOwnership",
      "outputs": [],
      "payable": false,
      "stateMutability": "nonpayable",
      "type": "function"
    },
    {
      "constant": true,
      "inputs": [],
      "name": "allTicket",
      "outputs": [
        {
          "name": "",
          "type": "uint256"
        }
      ],
      "payable": false,
      "stateMutability": "view",
      "type": "function"
    },
    {
      "constant": true,
      "inputs": [],
      "name": "owner",
      "outputs": [
        {
          "name": "",
          "type": "address"
        }
      ],
      "payable": false,
      "stateMutability": "view",
      "type": "function"
    },
    {
      "constant": false,
      "inputs": [
        {
          "name": "_newOwner",
          "type": "address"
        }
      ],
      "name": "transferOwnership",
      "outputs": [],
      "payable": false,
      "stateMutability": "nonpayable",
      "type": "function"
    },
    {
      "inputs": [],
      "payable": false,
      "stateMutability": "nonpayable",
      "type": "constructor"
    },
    {
      "anonymous": false,
      "inputs": [
        {
          "indexed": true,
          "name": "previousOwner",
          "type": "address"
        }
      ],
      "name": "OwnershipRenounced",
      "type": "event"
    },
    {
      "anonymous": false,
      "inputs": [
        {
          "indexed": true,
          "name": "previousOwner",
          "type": "address"
        },
        {
          "indexed": true,
          "name": "newOwner",
          "type": "address"
        }
      ],
      "name": "OwnershipTransferred",
      "type": "event"
    },
    {
      "constant": false,
      "inputs": [
        {
          "name": "_selfAddress",
          "type": "address"
        }
      ],
      "name": "start",
      "outputs": [],
      "payable": false,
      "stateMutability": "nonpayable",
      "type": "function"
    },
    {
      "constant": false,
      "inputs": [],
      "name": "withdraw",
      "outputs": [],
      "payable": false,
      "stateMutability": "nonpayable",
      "type": "function"
    },
    {
      "constant": false,
      "inputs": [
        {
          "name": "_owner",
          "type": "address"
        },
        {
          "name": "_numberOfTickets",
          "type": "uint256"
        }
      ],
      "name": "buy",
      "outputs": [],
      "payable": true,
      "stateMutability": "payable",
      "type": "function"
    },
    {
      "constant": true,
      "inputs": [
        {
          "name": "_numberOfTickets",
          "type": "uint256"
        }
      ],
      "name": "calculatePrice",
      "outputs": [
        {
          "name": "",
          "type": "uint256"
        }
      ],
      "payable": false,
      "stateMutability": "pure",
      "type": "function"
    },
    {
      "constant": true,
      "inputs": [
        {
          "name": "_owner",
          "type": "address"
        },
        {
          "name": "_allTicket",
          "type": "uint256"
        }
      ],
      "name": "hash",
      "outputs": [
        {
          "name": "",
          "type": "bytes32"
        }
      ],
      "payable": false,
      "stateMutability": "view",
      "type": "function"
    },
    {
      "constant": true,
      "inputs": [
        {
          "name": "_ticketId",
          "type": "bytes32"
        },
        {
          "name": "_ticketOwn",
          "type": "address"
        }
      ],
      "name": "test",
      "outputs": [
        {
          "name": "",
          "type": "bool"
        }
      ],
      "payable": false,
      "stateMutability": "view",
      "type": "function"
    }
  ],
  "bytecode": "0x608060405260ce6001556002805460ff1916905534801561001f57600080fd5b5060008054600160a060020a0319163317905561076c806100416000396000f3006080604052600436106100a35763ffffffff7c01000000000000000000000000000000000000000000000000000000006000350416633ccfd60b81146100a8578063478bf16d146100bf57806351208fb3146100f7578063715018a61461012d5780637a1f6239146101425780638da5cb5b14610157578063ae10426514610188578063cce7ec13146101a0578063dd0b281e146101b7578063f2fde38b146101d8575b600080fd5b3480156100b457600080fd5b506100bd6101f9565b005b3480156100cb57600080fd5b506100e3600435600160a060020a0360243516610259565b604080519115158252519081900360200190f35b34801561010357600080fd5b5061011b600160a060020a0360043516602435610310565b60408051918252519081900360200190f35b34801561013957600080fd5b506100bd6103c6565b34801561014e57600080fd5b5061011b610432565b34801561016357600080fd5b5061016c610438565b60408051600160a060020a039092168252519081900360200190f35b34801561019457600080fd5b5061011b600435610447565b6100bd600160a060020a03600435166024356104ad565b3480156101c357600080fd5b506100bd600160a060020a0360043516610642565b3480156101e457600080fd5b506100bd600160a060020a03600435166106a8565b600054600160a060020a0316331461021057600080fd5b60008054600254604051600160a060020a03928316936101009092049092163180156108fc02929091818181858888f19350505050158015610256573d6000803e3d6000fd5b50565b600160a060020a0381166000908152600360209081526040808320805482518185028101850190935280835260609385939291908301828280156102bd57602002820191906000526020600020905b815481526001909101906020018083116102a8575b50505050509150600090505b815181101561030357815185908390839081106102e257fe5b6020908102909101015114156102fb5760019250610308565b6001016102c9565b600092505b505092915050565b600254604080516c01000000000000000000000000600160a060020a03808716820260208085019190915260348401879052610100909504160260548201528151604881830301815260689091019182905280516000939192918291908401908083835b602083106103935780518252601f199092019160209182019101610374565b5181516020939093036101000a600019018019909116921691909117905260405192018290039091209695505050505050565b600054600160a060020a031633146103dd57600080fd5b60008054604051600160a060020a03909116917ff8df31144d9c2f0f6b59d69b8b98abd5459d07f2742c4df920b25aae33c6482091a26000805473ffffffffffffffffffffffffffffffffffffffff19169055565b60015481565b600054600160a060020a031681565b60008082116104a0576040805160e560020a62461bcd02815260206004820152600360248201527f7878780000000000000000000000000000000000000000000000000000000000604482015290519081900360640190fd5b5066354a6ba7a180000290565b6002546000908190819060ff1615156001146104c857600080fd5b60008411610520576040805160e560020a62461bcd02815260206004820152600360248201527f7878780000000000000000000000000000000000000000000000000000000000604482015290519081900360640190fd5b60015484111561057a576040805160e560020a62461bcd02815260206004820152600360248201527f7979790000000000000000000000000000000000000000000000000000000000604482015290519081900360640190fd5b61058384610447565b9250348311156105dd576040805160e560020a62461bcd02815260206004820152600360248201527f7a7a7a0000000000000000000000000000000000000000000000000000000000604482015290519081900360640190fd5b339450600091505b8382101561063b576105f985600154610310565b600160a060020a0386166000908152600360209081526040822080546001818101835591845291909220018290558054600019018155929092019190506105e5565b5050505050565b600054600160a060020a0316331461065957600080fd5b60025460ff161561066957600080fd5b60028054600160a060020a039092166101000274ffffffffffffffffffffffffffffffffffffffff001960ff1990931660011792909216919091179055565b600054600160a060020a031633146106bf57600080fd5b61025681600160a060020a03811615156106d857600080fd5b60008054604051600160a060020a03808516939216917f8be0079c531659141344cd1fd0a4f28419497f9722a3daafe3b4186f6b6457e091a36000805473ffffffffffffffffffffffffffffffffffffffff1916600160a060020a03929092169190911790555600a165627a7a72305820b62ac9e51737d0022a0ef98f827120b2a80bc9edc46bc9f09eabb4c1a3c0c3160029",
  "source": "pragma solidity ^0.4.24;\n\n//import \"./ERC721Basic.sol\";\nimport \"./Ownable.sol\";\n\ncontract Ticket is Ownable {\n    uint public allTicket = 206;\n    uint constant ticketPrice = 15 finney;\n    bool isStart = false;\n    address selfAddress;\n\n// todo: структура битета владелец, тип, Idбилета, и еще что-то там\n//    struct ticket{\n//\n//    }\n\n    constructor() public Ownable() {}\n\n    modifier isStarted() {\n        require(isStart == true);\n        _;\n    }\n\n    function start(address _selfAddress) onlyOwner public { //\n        require(isStart == false);\n        isStart = true;\n        selfAddress = _selfAddress;\n    }\n\n    function withdraw() onlyOwner public {\n        owner.transfer(selfAddress.balance);\n    }\n\n    mapping (address => bytes32[]) soul;\n\n    function buy(address _owner, uint _numberOfTickets) payable isStarted public {\n        require(_numberOfTickets > 0, \"xxx\");\n        require(_numberOfTickets <= allTicket, \"yyy\");\n        uint _cost = calculatePrice(_numberOfTickets);\n        require(msg.value >= _cost, \"zzz\");\n\n        _owner = msg.sender;\n\n        for(uint i = 0; i < _numberOfTickets; i++) {\n            bytes32 token = hash(_owner, allTicket); // remove _numberOfTickets\n            soul[_owner].push(token);\n            allTicket--;\n        }\n    }\n\n    function calculatePrice(uint _numberOfTickets) public pure returns(uint) {\n        require(_numberOfTickets > 0, \"xxx\");\n        return _numberOfTickets * ticketPrice;\n    }\n\n    function hash(address _owner, uint _allTicket) public view returns(bytes32) { //remove uint _numberOfTickets; pure to view\n        return keccak256(abi.encodePacked(_owner, _allTicket, selfAddress)); //remplace _numberOfTickets to _allTicket\n    }\n\n    function test(bytes32 _ticketId, address _ticketOwn) public view returns(bool){\n        //bool ansver = false;\n        bytes32[] memory _ticketList = soul[_ticketOwn];\n        for(uint i = 0; i< _ticketList.length; i++ ) {\n            if(_ticketList[i] == _ticketId){\n                return true;\n            }\n        }\n        return false;\n    }\n}\n",
  "sourcePath": "/Users/victor/Documents/Blockchain/week6/Ticket/contracts/Ticket.sol",
  "compiler": {
    "name": "solc",
    "version": "0.4.24+commit.e67f0147.Emscripten.clang"
  },
  "schemaVersion": "2.0.1",
  "updatedAt": "2018-08-27T13:26:28.288Z"
}